{
	"_format": "hh-sol-artifact-1",
	"contractName": "ExtendedERC1155",
	"sourceName": "contracts/NFT/ExtendedERC1155.sol",
	"abi": [
		{
			"inputs": [
				{
					"internalType": "address",
					"name": "owner_",
					"type": "address"
				},
				{
					"internalType": "address",
					"name": "decryptMarketplaceAddress_",
					"type": "address"
				},
				{
					"internalType": "string",
					"name": "uri_",
					"type": "string"
				},
				{
					"internalType": "uint256",
					"name": "royalty_",
					"type": "uint256"
				},
				{
					"internalType": "address",
					"name": "preSalePaymentToken_",
					"type": "address"
				}
			],
			"stateMutability": "nonpayable",
			"type": "constructor"
		},
		{
			"anonymous": false,
			"inputs": [
				{
					"indexed": true,
					"internalType": "address",
					"name": "account",
					"type": "address"
				},
				{
					"indexed": true,
					"internalType": "address",
					"name": "operator",
					"type": "address"
				},
				{
					"indexed": false,
					"internalType": "bool",
					"name": "approved",
					"type": "bool"
				}
			],
			"name": "ApprovalForAll",
			"type": "event"
		},
		{
			"anonymous": false,
			"inputs": [
				{
					"indexed": false,
					"internalType": "uint256",
					"name": "_eventId",
					"type": "uint256"
				},
				{
					"indexed": false,
					"internalType": "uint256",
					"name": "_maxTokensPerWallet",
					"type": "uint256"
				},
				{
					"indexed": false,
					"internalType": "uint256",
					"name": "_maxTokensOfSameIdPerWallet",
					"type": "uint256"
				},
				{
					"indexed": false,
					"internalType": "uint256",
					"name": "_startTime",
					"type": "uint256"
				},
				{
					"indexed": false,
					"internalType": "uint256",
					"name": "_endTime",
					"type": "uint256"
				},
				{
					"indexed": false,
					"internalType": "uint256",
					"name": "_maxTokensForTier",
					"type": "uint256"
				},
				{
					"indexed": false,
					"internalType": "uint256",
					"name": "_price",
					"type": "uint256"
				},
				{
					"indexed": false,
					"internalType": "bool",
					"name": "_whiteList",
					"type": "bool"
				}
			],
			"name": "NewPreSale",
			"type": "event"
		},
		{
			"anonymous": false,
			"inputs": [
				{
					"indexed": true,
					"internalType": "address",
					"name": "previousOwner",
					"type": "address"
				},
				{
					"indexed": true,
					"internalType": "address",
					"name": "newOwner",
					"type": "address"
				}
			],
			"name": "OwnershipTransferred",
			"type": "event"
		},
		{
			"anonymous": false,
			"inputs": [
				{
					"indexed": true,
					"internalType": "address",
					"name": "operator",
					"type": "address"
				},
				{
					"indexed": true,
					"internalType": "address",
					"name": "from",
					"type": "address"
				},
				{
					"indexed": true,
					"internalType": "address",
					"name": "to",
					"type": "address"
				},
				{
					"indexed": false,
					"internalType": "uint256[]",
					"name": "ids",
					"type": "uint256[]"
				},
				{
					"indexed": false,
					"internalType": "uint256[]",
					"name": "values",
					"type": "uint256[]"
				}
			],
			"name": "TransferBatch",
			"type": "event"
		},
		{
			"anonymous": false,
			"inputs": [
				{
					"indexed": true,
					"internalType": "address",
					"name": "operator",
					"type": "address"
				},
				{
					"indexed": true,
					"internalType": "address",
					"name": "from",
					"type": "address"
				},
				{
					"indexed": true,
					"internalType": "address",
					"name": "to",
					"type": "address"
				},
				{
					"indexed": false,
					"internalType": "uint256",
					"name": "id",
					"type": "uint256"
				},
				{
					"indexed": false,
					"internalType": "uint256",
					"name": "value",
					"type": "uint256"
				}
			],
			"name": "TransferSingle",
			"type": "event"
		},
		{
			"anonymous": false,
			"inputs": [
				{
					"indexed": false,
					"internalType": "string",
					"name": "value",
					"type": "string"
				},
				{
					"indexed": true,
					"internalType": "uint256",
					"name": "id",
					"type": "uint256"
				}
			],
			"name": "URI",
			"type": "event"
		},
		{
			"anonymous": false,
			"inputs": [
				{
					"indexed": false,
					"internalType": "uint256",
					"name": "_eventId",
					"type": "uint256"
				},
				{
					"indexed": false,
					"internalType": "uint256",
					"name": "_maxTokensPerWallet",
					"type": "uint256"
				},
				{
					"indexed": false,
					"internalType": "uint256",
					"name": "_maxTokensOfSameIdPerWallet",
					"type": "uint256"
				},
				{
					"indexed": false,
					"internalType": "uint256",
					"name": "_startTime",
					"type": "uint256"
				},
				{
					"indexed": false,
					"internalType": "uint256",
					"name": "_endTime",
					"type": "uint256"
				},
				{
					"indexed": false,
					"internalType": "uint256",
					"name": "_maxTokensForTier",
					"type": "uint256"
				},
				{
					"indexed": false,
					"internalType": "uint256",
					"name": "_price",
					"type": "uint256"
				},
				{
					"indexed": false,
					"internalType": "bool",
					"name": "_whiteList",
					"type": "bool"
				}
			],
			"name": "UpdatedPreSale",
			"type": "event"
		},
		{
			"anonymous": false,
			"inputs": [
				{
					"indexed": false,
					"internalType": "string",
					"name": "_uri",
					"type": "string"
				}
			],
			"name": "UpdatedURI",
			"type": "event"
		},
		{
			"inputs": [
				{
					"internalType": "uint256",
					"name": "eventId",
					"type": "uint256"
				},
				{
					"internalType": "address",
					"name": "buyer",
					"type": "address"
				}
			],
			"name": "addToWhitelist",
			"outputs": [],
			"stateMutability": "nonpayable",
			"type": "function"
		},
		{
			"inputs": [
				{
					"internalType": "address",
					"name": "account",
					"type": "address"
				},
				{
					"internalType": "uint256",
					"name": "id",
					"type": "uint256"
				}
			],
			"name": "balanceOf",
			"outputs": [
				{
					"internalType": "uint256",
					"name": "",
					"type": "uint256"
				}
			],
			"stateMutability": "view",
			"type": "function"
		},
		{
			"inputs": [
				{
					"internalType": "address[]",
					"name": "accounts",
					"type": "address[]"
				},
				{
					"internalType": "uint256[]",
					"name": "ids",
					"type": "uint256[]"
				}
			],
			"name": "balanceOfBatch",
			"outputs": [
				{
					"internalType": "uint256[]",
					"name": "",
					"type": "uint256[]"
				}
			],
			"stateMutability": "view",
			"type": "function"
		},
		{
			"inputs": [
				{
					"internalType": "address",
					"name": "buyer",
					"type": "address"
				},
				{
					"internalType": "uint256",
					"name": "tokenId",
					"type": "uint256"
				},
				{
					"internalType": "uint256",
					"name": "amount",
					"type": "uint256"
				},
				{
					"internalType": "uint256",
					"name": "eventId",
					"type": "uint256"
				}
			],
			"name": "countTokensBought",
			"outputs": [],
			"stateMutability": "nonpayable",
			"type": "function"
		},
		{
			"inputs": [
				{
					"internalType": "uint256",
					"name": "_maxTokensPerWallet",
					"type": "uint256"
				},
				{
					"internalType": "uint256",
					"name": "_maxTokensOfSameIdPerWallet",
					"type": "uint256"
				},
				{
					"internalType": "uint256",
					"name": "_startTime",
					"type": "uint256"
				},
				{
					"internalType": "uint256",
					"name": "_endTime",
					"type": "uint256"
				},
				{
					"internalType": "uint256",
					"name": "_maxTokensForEvent",
					"type": "uint256"
				},
				{
					"internalType": "uint256",
					"name": "_price",
					"type": "uint256"
				},
				{
					"internalType": "bool",
					"name": "_whiteList",
					"type": "bool"
				}
			],
			"name": "createPreSaleEvent",
			"outputs": [],
			"stateMutability": "nonpayable",
			"type": "function"
		},
		{
			"inputs": [],
			"name": "decryptMarketplaceAddress",
			"outputs": [
				{
					"internalType": "address",
					"name": "",
					"type": "address"
				}
			],
			"stateMutability": "view",
			"type": "function"
		},
		{
			"inputs": [],
			"name": "disableRoyalty",
			"outputs": [],
			"stateMutability": "nonpayable",
			"type": "function"
		},
		{
			"inputs": [],
			"name": "disableRoyaltyDistribution",
			"outputs": [],
			"stateMutability": "nonpayable",
			"type": "function"
		},
		{
			"inputs": [],
			"name": "enableRoyalty",
			"outputs": [],
			"stateMutability": "nonpayable",
			"type": "function"
		},
		{
			"inputs": [],
			"name": "enableRoyaltyDistribution",
			"outputs": [],
			"stateMutability": "nonpayable",
			"type": "function"
		},
		{
			"inputs": [],
			"name": "getDefaultRoyaltyDistribution",
			"outputs": [
				{
					"components": [
						{
							"internalType": "address",
							"name": "collaborator",
							"type": "address"
						},
						{
							"internalType": "uint256",
							"name": "share",
							"type": "uint256"
						}
					],
					"internalType": "struct RoyaltyDistribution.RoyaltyShare[]",
					"name": "",
					"type": "tuple[]"
				}
			],
			"stateMutability": "view",
			"type": "function"
		},
		{
			"inputs": [
				{
					"internalType": "address",
					"name": "buyer",
					"type": "address"
				},
				{
					"internalType": "uint256",
					"name": "tokenId",
					"type": "uint256"
				},
				{
					"internalType": "uint256",
					"name": "quantity",
					"type": "uint256"
				},
				{
					"internalType": "uint256",
					"name": "eventId",
					"type": "uint256"
				}
			],
			"name": "getTokenInfo",
			"outputs": [
				{
					"internalType": "uint256",
					"name": "tokenPrice",
					"type": "uint256"
				},
				{
					"internalType": "address",
					"name": "paymentToken",
					"type": "address"
				},
				{
					"internalType": "bool",
					"name": "availableForBuyer",
					"type": "bool"
				}
			],
			"stateMutability": "view",
			"type": "function"
		},
		{
			"inputs": [
				{
					"internalType": "uint256",
					"name": "tokenId",
					"type": "uint256"
				}
			],
			"name": "getTokenRoyaltyDistribution",
			"outputs": [
				{
					"components": [
						{
							"internalType": "address",
							"name": "collaborator",
							"type": "address"
						},
						{
							"internalType": "uint256",
							"name": "share",
							"type": "uint256"
						}
					],
					"internalType": "struct RoyaltyDistribution.RoyaltyShare[]",
					"name": "",
					"type": "tuple[]"
				}
			],
			"stateMutability": "view",
			"type": "function"
		},
		{
			"inputs": [],
			"name": "globalRoyalty",
			"outputs": [
				{
					"internalType": "uint256",
					"name": "",
					"type": "uint256"
				}
			],
			"stateMutability": "view",
			"type": "function"
		},
		{
			"inputs": [],
			"name": "globalRoyaltyEnabled",
			"outputs": [
				{
					"internalType": "bool",
					"name": "",
					"type": "bool"
				}
			],
			"stateMutability": "view",
			"type": "function"
		},
		{
			"inputs": [
				{
					"internalType": "address",
					"name": "",
					"type": "address"
				},
				{
					"internalType": "uint256",
					"name": "",
					"type": "uint256"
				}
			],
			"name": "isAddressWhitelisted",
			"outputs": [
				{
					"internalType": "bool",
					"name": "",
					"type": "bool"
				}
			],
			"stateMutability": "view",
			"type": "function"
		},
		{
			"inputs": [
				{
					"internalType": "address",
					"name": "account",
					"type": "address"
				},
				{
					"internalType": "address",
					"name": "operator",
					"type": "address"
				}
			],
			"name": "isApprovedForAll",
			"outputs": [
				{
					"internalType": "bool",
					"name": "",
					"type": "bool"
				}
			],
			"stateMutability": "view",
			"type": "function"
		},
		{
			"inputs": [
				{
					"internalType": "address",
					"name": "to",
					"type": "address"
				},
				{
					"internalType": "uint256",
					"name": "tokenId",
					"type": "uint256"
				},
				{
					"internalType": "uint256",
					"name": "amount",
					"type": "uint256"
				}
			],
			"name": "lazyMint",
			"outputs": [],
			"stateMutability": "nonpayable",
			"type": "function"
		},
		{
			"inputs": [
				{
					"internalType": "address",
					"name": "account",
					"type": "address"
				},
				{
					"internalType": "uint256",
					"name": "id",
					"type": "uint256"
				},
				{
					"internalType": "uint256",
					"name": "amount",
					"type": "uint256"
				}
			],
			"name": "mint",
			"outputs": [],
			"stateMutability": "nonpayable",
			"type": "function"
		},
		{
			"inputs": [
				{
					"internalType": "address",
					"name": "to",
					"type": "address"
				},
				{
					"internalType": "uint256[]",
					"name": "ids",
					"type": "uint256[]"
				},
				{
					"internalType": "uint256[]",
					"name": "amounts",
					"type": "uint256[]"
				}
			],
			"name": "mintBatch",
			"outputs": [],
			"stateMutability": "nonpayable",
			"type": "function"
		},
		{
			"inputs": [],
			"name": "owner",
			"outputs": [
				{
					"internalType": "address",
					"name": "",
					"type": "address"
				}
			],
			"stateMutability": "view",
			"type": "function"
		},
		{
			"inputs": [
				{
					"internalType": "uint256",
					"name": "",
					"type": "uint256"
				}
			],
			"name": "preSaleEventInfo",
			"outputs": [
				{
					"internalType": "uint256",
					"name": "maxTokensPerWallet",
					"type": "uint256"
				},
				{
					"internalType": "uint256",
					"name": "maxTokensOfSameIdPerWallet",
					"type": "uint256"
				},
				{
					"internalType": "uint256",
					"name": "startTime",
					"type": "uint256"
				},
				{
					"internalType": "uint256",
					"name": "endTime",
					"type": "uint256"
				},
				{
					"internalType": "uint256",
					"name": "maxTokensForEvent",
					"type": "uint256"
				},
				{
					"internalType": "uint256",
					"name": "tokensSold",
					"type": "uint256"
				},
				{
					"internalType": "uint256",
					"name": "price",
					"type": "uint256"
				},
				{
					"internalType": "bool",
					"name": "whiteList",
					"type": "bool"
				}
			],
			"stateMutability": "view",
			"type": "function"
		},
		{
			"inputs": [],
			"name": "preSalePaymentToken",
			"outputs": [
				{
					"internalType": "address",
					"name": "",
					"type": "address"
				}
			],
			"stateMutability": "view",
			"type": "function"
		},
		{
			"inputs": [],
			"name": "renounceOwnership",
			"outputs": [],
			"stateMutability": "nonpayable",
			"type": "function"
		},
		{
			"inputs": [],
			"name": "royaltyDistributionEnabled",
			"outputs": [
				{
					"internalType": "bool",
					"name": "",
					"type": "bool"
				}
			],
			"stateMutability": "view",
			"type": "function"
		},
		{
			"inputs": [
				{
					"internalType": "uint256",
					"name": "_tokenId",
					"type": "uint256"
				},
				{
					"internalType": "uint256",
					"name": "_salePrice",
					"type": "uint256"
				}
			],
			"name": "royaltyInfo",
			"outputs": [
				{
					"internalType": "address",
					"name": "receiver",
					"type": "address"
				},
				{
					"internalType": "uint256",
					"name": "royaltyAmount",
					"type": "uint256"
				}
			],
			"stateMutability": "view",
			"type": "function"
		},
		{
			"inputs": [],
			"name": "royaltyReceiver",
			"outputs": [
				{
					"internalType": "address",
					"name": "",
					"type": "address"
				}
			],
			"stateMutability": "view",
			"type": "function"
		},
		{
			"inputs": [
				{
					"internalType": "address",
					"name": "from",
					"type": "address"
				},
				{
					"internalType": "address",
					"name": "to",
					"type": "address"
				},
				{
					"internalType": "uint256[]",
					"name": "ids",
					"type": "uint256[]"
				},
				{
					"internalType": "uint256[]",
					"name": "amounts",
					"type": "uint256[]"
				},
				{
					"internalType": "bytes",
					"name": "data",
					"type": "bytes"
				}
			],
			"name": "safeBatchTransferFrom",
			"outputs": [],
			"stateMutability": "nonpayable",
			"type": "function"
		},
		{
			"inputs": [
				{
					"internalType": "address",
					"name": "from",
					"type": "address"
				},
				{
					"internalType": "address",
					"name": "to",
					"type": "address"
				},
				{
					"internalType": "uint256",
					"name": "id",
					"type": "uint256"
				},
				{
					"internalType": "uint256",
					"name": "amount",
					"type": "uint256"
				},
				{
					"internalType": "bytes",
					"name": "data",
					"type": "bytes"
				}
			],
			"name": "safeTransferFrom",
			"outputs": [],
			"stateMutability": "nonpayable",
			"type": "function"
		},
		{
			"inputs": [
				{
					"internalType": "address",
					"name": "operator",
					"type": "address"
				},
				{
					"internalType": "bool",
					"name": "approved",
					"type": "bool"
				}
			],
			"name": "setApprovalForAll",
			"outputs": [],
			"stateMutability": "nonpayable",
			"type": "function"
		},
		{
			"inputs": [
				{
					"internalType": "uint256",
					"name": "tokenId",
					"type": "uint256"
				},
				{
					"internalType": "string",
					"name": "_customUri",
					"type": "string"
				}
			],
			"name": "setCustomTokenUri",
			"outputs": [],
			"stateMutability": "nonpayable",
			"type": "function"
		},
		{
			"inputs": [
				{
					"internalType": "address[]",
					"name": "collaborators",
					"type": "address[]"
				},
				{
					"internalType": "uint256[]",
					"name": "shares",
					"type": "uint256[]"
				}
			],
			"name": "setDefaultRoyaltyDistribution",
			"outputs": [],
			"stateMutability": "nonpayable",
			"type": "function"
		},
		{
			"inputs": [
				{
					"internalType": "uint256",
					"name": "_royalty",
					"type": "uint256"
				}
			],
			"name": "setGlobalRoyalty",
			"outputs": [],
			"stateMutability": "nonpayable",
			"type": "function"
		},
		{
			"inputs": [
				{
					"internalType": "address",
					"name": "_preSalePaymentToken",
					"type": "address"
				}
			],
			"name": "setPreSalePaymentToken",
			"outputs": [],
			"stateMutability": "nonpayable",
			"type": "function"
		},
		{
			"inputs": [
				{
					"internalType": "address",
					"name": "newRoyaltyReceiver",
					"type": "address"
				}
			],
			"name": "setRoyaltyReceiver",
			"outputs": [],
			"stateMutability": "nonpayable",
			"type": "function"
		},
		{
			"inputs": [
				{
					"internalType": "uint256",
					"name": "eventId",
					"type": "uint256"
				},
				{
					"internalType": "uint256",
					"name": "tokenId",
					"type": "uint256"
				},
				{
					"internalType": "uint256",
					"name": "price",
					"type": "uint256"
				}
			],
			"name": "setSpecialPriceForToken",
			"outputs": [],
			"stateMutability": "nonpayable",
			"type": "function"
		},
		{
			"inputs": [
				{
					"internalType": "uint256",
					"name": "_royalty",
					"type": "uint256"
				},
				{
					"internalType": "uint256",
					"name": "_tokenId",
					"type": "uint256"
				}
			],
			"name": "setTokenRoyalty",
			"outputs": [],
			"stateMutability": "nonpayable",
			"type": "function"
		},
		{
			"inputs": [
				{
					"internalType": "address[]",
					"name": "collaborators",
					"type": "address[]"
				},
				{
					"internalType": "uint256[]",
					"name": "shares",
					"type": "uint256[]"
				},
				{
					"internalType": "uint256",
					"name": "tokenId",
					"type": "uint256"
				}
			],
			"name": "setTokenRoyaltyDistribution",
			"outputs": [],
			"stateMutability": "nonpayable",
			"type": "function"
		},
		{
			"inputs": [
				{
					"internalType": "string",
					"name": "uri_",
					"type": "string"
				}
			],
			"name": "setURI",
			"outputs": [],
			"stateMutability": "nonpayable",
			"type": "function"
		},
		{
			"inputs": [
				{
					"internalType": "uint256",
					"name": "",
					"type": "uint256"
				},
				{
					"internalType": "uint256",
					"name": "",
					"type": "uint256"
				}
			],
			"name": "specialPrice",
			"outputs": [
				{
					"internalType": "uint256",
					"name": "",
					"type": "uint256"
				}
			],
			"stateMutability": "view",
			"type": "function"
		},
		{
			"inputs": [
				{
					"internalType": "bytes4",
					"name": "interfaceId",
					"type": "bytes4"
				}
			],
			"name": "supportsInterface",
			"outputs": [
				{
					"internalType": "bool",
					"name": "",
					"type": "bool"
				}
			],
			"stateMutability": "view",
			"type": "function"
		},
		{
			"inputs": [
				{
					"internalType": "uint256",
					"name": "",
					"type": "uint256"
				},
				{
					"internalType": "uint256",
					"name": "",
					"type": "uint256"
				}
			],
			"name": "tokenCollaboratorsRoyaltyShare",
			"outputs": [
				{
					"internalType": "address",
					"name": "collaborator",
					"type": "address"
				},
				{
					"internalType": "uint256",
					"name": "share",
					"type": "uint256"
				}
			],
			"stateMutability": "view",
			"type": "function"
		},
		{
			"inputs": [
				{
					"internalType": "uint256",
					"name": "",
					"type": "uint256"
				}
			],
			"name": "tokenRoyalty",
			"outputs": [
				{
					"internalType": "uint256",
					"name": "",
					"type": "uint256"
				}
			],
			"stateMutability": "view",
			"type": "function"
		},
		{
			"inputs": [
				{
					"internalType": "address",
					"name": "newOwner",
					"type": "address"
				}
			],
			"name": "transferOwnership",
			"outputs": [],
			"stateMutability": "nonpayable",
			"type": "function"
		},
		{
			"inputs": [
				{
					"internalType": "uint256",
					"name": "_eventId",
					"type": "uint256"
				},
				{
					"internalType": "uint256",
					"name": "_maxTokensPerWallet",
					"type": "uint256"
				},
				{
					"internalType": "uint256",
					"name": "_maxTokensOfSameIdPerWallet",
					"type": "uint256"
				},
				{
					"internalType": "uint256",
					"name": "_startTime",
					"type": "uint256"
				},
				{
					"internalType": "uint256",
					"name": "_endTime",
					"type": "uint256"
				},
				{
					"internalType": "uint256",
					"name": "_maxTokensForEvent",
					"type": "uint256"
				},
				{
					"internalType": "uint256",
					"name": "_price",
					"type": "uint256"
				},
				{
					"internalType": "bool",
					"name": "_whiteList",
					"type": "bool"
				}
			],
			"name": "updatePreSaleEvent",
			"outputs": [],
			"stateMutability": "nonpayable",
			"type": "function"
		},
		{
			"inputs": [
				{
					"internalType": "uint256",
					"name": "tokenId",
					"type": "uint256"
				}
			],
			"name": "uri",
			"outputs": [
				{
					"internalType": "string",
					"name": "",
					"type": "string"
				}
			],
			"stateMutability": "view",
			"type": "function"
		}
	],
	"bytecode": "0x60806040526006805461ffff60a01b191661010160a01b1790553480156200002657600080fd5b5060405162003f1938038062003f198339810160408190526200004991620002c3565b84848484816200005933620000c2565b620000648162000112565b50600781905562000075846200012b565b5050600b80546001600160a01b039384166001600160a01b031991821617909155600f80549284169282169290921790915560068054939092169216919091179055506200043192505050565b600080546001600160a01b038381166001600160a01b0319831681178455604051919092169283917f8be0079c531659141344cd1fd0a4f28419497f9722a3daafe3b4186f6b6457e09190a35050565b80516200012790600e90602084019062000200565b5050565b6000546001600160a01b031633146200018b5760405162461bcd60e51b815260206004820181905260248201527f4f776e61626c653a2063616c6c6572206973206e6f7420746865206f776e657260448201526064015b60405180910390fd5b6001600160a01b038116620001f25760405162461bcd60e51b815260206004820152602660248201527f4f776e61626c653a206e6577206f776e657220697320746865207a65726f206160448201526564647265737360d01b606482015260840162000182565b620001fd81620000c2565b50565b8280546200020e90620003de565b90600052602060002090601f0160209004810192826200023257600085556200027d565b82601f106200024d57805160ff19168380011785556200027d565b828001600101855582156200027d579182015b828111156200027d57825182559160200191906001019062000260565b506200028b9291506200028f565b5090565b5b808211156200028b576000815560010162000290565b80516001600160a01b0381168114620002be57600080fd5b919050565b600080600080600060a08688031215620002db578081fd5b620002e686620002a6565b94506020620002f7818801620002a6565b60408801519095506001600160401b038082111562000314578384fd5b818901915089601f83011262000328578384fd5b8151818111156200033d576200033d6200041b565b604051601f8201601f19908116603f011681019083821181831017156200036857620003686200041b565b816040528281528c8684870101111562000380578687fd5b8693505b82841015620003a3578484018601518185018701529285019262000384565b82841115620003b457868684830101525b80985050505050505060608601519150620003d260808701620002a6565b90509295509295909350565b600181811c90821680620003f357607f821691505b602082108114156200041557634e487b7160e01b600052602260045260246000fd5b50919050565b634e487b7160e01b600052604160045260246000fd5b613ad880620004416000396000f3fe608060405234801561001057600080fd5b50600436106102885760003560e01c80635776be2d1161015c578063a22cb465116100ce578063e985e9c511610087578063e985e9c514610642578063ee2dd6d11461067e578063f242432a14610686578063f2fde38b14610699578063f8ef6b71146106ac578063fba52c24146106b457610288565b8063a22cb465146105bb578063b0de83a3146105ce578063bc189d38146105e1578063d81d0a15146105f4578063da536f5a14610607578063e8c152051461062e57610288565b80638da5cb5b116101205780638da5cb5b1461054f5780638dc251e3146105575780639a941f5c1461056a5780639fbc8713146105985780639fc28f81146105ab578063a0c7489d146105b357610288565b80635776be2d146104a657806359112bb3146104b9578063715018a6146104e457806373ba0289146104ec578063863aa1c51461051757610288565b80632741416311610200578063483b81ef116101b9578063483b81ef1461043157806349d721471461043a5780634e1273f41461044d5780634e6836ab1461046d5780635219e8a2146104805780635373dd881461049357610288565b8063274141631461039e5780632a55205a146103b15780632d785461146103e35780632eb2c2d6146103f6578063445375201461040957806348375f841461041157610288565b80630c2e2601116102525780630c2e2601146103125780630e89341c14610325578063156e29f6146103455780631763b4a8146103585780631b267eab1461036b5780631ff4a4201461037e57610288565b8062e12fe21461028d578062fdd58e146102a2578063012e46b6146102c857806301ffc9a7146102ec57806302fe5305146102ff575b600080fd5b6102a061029b366004613419565b6106c7565b005b6102b56102b03660046130dd565b61071b565b6040519081526020015b60405180910390f35b6006546102dc90600160a81b900460ff1681565b60405190151581526020016102bf565b6102dc6102fa366004613312565b6107af565b6102a061030d36600461334a565b6107dc565b6102a061032036600461349f565b61084e565b610338610333366004613384565b610b21565b6040516102bf91906136c5565b6102a0610353366004613106565b610bec565b6102a0610366366004613170565b610c46565b6102a06103793660046133be565b610e42565b6102b561038c366004613384565b60086020526000908152604090205481565b6102a06103ac366004613106565b610e90565b6103c46103bf3660046133f8565b610ed9565b604080516001600160a01b0390931683526020830191909152016102bf565b6102a06103f136600461339c565b610f73565b6102a0610404366004612f3d565b61104b565b6102a06110e2565b61042461041f366004613384565b611126565b6040516102bf919061362c565b6102b560075481565b6103c46104483660046133f8565b6111ae565b61046061045b366004613248565b6111f4565b6040516102bf9190613684565b6102a061047b3660046131d8565b611355565b6102a061048e366004612eea565b61156e565b6102a06104a1366004613138565b6115bf565b6102a06104b4366004613444565b61161a565b600f546104cc906001600160a01b031681565b6040516001600160a01b0390911681526020016102bf565b6102a061187a565b6102b56104fa3660046133f8565b600160209081526000928352604080842090915290825290205481565b61052a610525366004613138565b6118b5565b604080519384526001600160a01b0390921660208401521515908201526060016102bf565b6104cc611c3e565b6102a0610565366004612eea565b611c4e565b6102dc6105783660046130dd565b600460209081526000928352604080842090915290825290205460ff1681565b600b546104cc906001600160a01b031681565b610424611d53565b6102a0611dc8565b6102a06105c93660046130b4565b611e0c565b6102a06105dc366004613384565b611e1b565b6102a06105ef3660046133f8565b611e97565b6102a0610602366004613044565b611f1f565b61061a610615366004613384565b611f74565b6040516102bf98979695949392919061386d565b6006546102dc90600160a01b900460ff1681565b6102dc610650366004612f0b565b6001600160a01b039182166000908152600d6020908152604080832093909416825291909152205460ff1690565b6102a0611fcd565b6102a0610694366004612fe2565b61200b565b6102a06106a7366004612eea565b612092565b6102a0612132565b6006546104cc906001600160a01b031681565b336106d0611c3e565b6001600160a01b0316146106ff5760405162461bcd60e51b81526004016106f6906137af565b60405180910390fd5b6000928352600160209081526040808520938552929052912055565b60006001600160a01b0383166107875760405162461bcd60e51b815260206004820152602b60248201527f455243313135353a2062616c616e636520717565727920666f7220746865207a60448201526a65726f206164647265737360a81b60648201526084016106f6565b506000908152600c602090815260408083206001600160a01b03949094168352929052205490565b60006001600160e01b0319821663d5497c4d60e01b14806107d457506107d482612170565b90505b919050565b336107e5611c3e565b6001600160a01b03161461080b5760405162461bcd60e51b81526004016106f6906137af565b610814816121cb565b7fbabd00c52f3ac8b66511ad0c5d9680f0417ad32bf6c8fede4cb2d45820353bc58160405161084391906136c5565b60405180910390a150565b33610857611c3e565b6001600160a01b03161461087d5760405162461bcd60e51b81526004016106f6906137af565b8385106108bd5760405162461bcd60e51b815260206004820152600e60248201526d57726f6e672074696d656c696e6560901b60448201526064016106f6565b42600589815481106108df57634e487b7160e01b600052603260045260246000fd5b9060005260206000209060080201600201541161093e5760405162461bcd60e51b815260206004820152601c60248201527f4576656e7420697320616c726561647920696e2070726f67726573730000000060448201526064016106f6565b866005898154811061096057634e487b7160e01b600052603260045260246000fd5b906000526020600020906008020160000181905550856005898154811061099757634e487b7160e01b600052603260045260246000fd5b90600052602060002090600802016001018190555084600589815481106109ce57634e487b7160e01b600052603260045260246000fd5b9060005260206000209060080201600201819055508360058981548110610a0557634e487b7160e01b600052603260045260246000fd5b9060005260206000209060080201600301819055508260058981548110610a3c57634e487b7160e01b600052603260045260246000fd5b9060005260206000209060080201600401819055508160058981548110610a7357634e487b7160e01b600052603260045260246000fd5b9060005260206000209060080201600601819055508060058981548110610aaa57634e487b7160e01b600052603260045260246000fd5b906000526020600020906008020160070160006101000a81548160ff0219169083151502179055507f7b06d599f3f3c5c2b5644fa6ff299230dcbe3e7aaace5bbfdebe4a40669201768888888888888888604051610b0f98979695949392919061386d565b60405180910390a15050505050505050565b6000818152601060205260409020805460609190610b3e90613936565b159050610be35760008281526010602052604090208054610b5e90613936565b80601f0160208091040260200160405190810160405280929190818152602001828054610b8a90613936565b8015610bd75780601f10610bac57610100808354040283529160200191610bd7565b820191906000526020600020905b815481529060010190602001808311610bba57829003601f168201915b505050505090506107d7565b6107d4826121de565b33610bf5611c3e565b6001600160a01b031614610c1b5760405162461bcd60e51b81526004016106f6906137af565b610c4183838360405180604001604052806002815260200161060f60f31b815250612272565b505050565b33610c4f611c3e565b6001600160a01b031614610c755760405162461bcd60e51b81526004016106f6906137af565b828114610cb85760405162461bcd60e51b8152602060048201526011602482015270082e4e4c2f2e640c8dedce840dac2e8c6d607b1b60448201526064016106f6565b6000805b82811015610d0a57838382818110610ce457634e487b7160e01b600052603260045260246000fd5b9050602002013582610cf691906138c8565b915080610d028161399d565b915050610cbc565b50612710811115610d545760405162461bcd60e51b81526020600482015260146024820152730546f74616c20736861726573203e2031303030360641b60448201526064016106f6565b610d6060096000612cbf565b60005b84811015610e3a5760096040518060400160405280888885818110610d9857634e487b7160e01b600052603260045260246000fd5b9050602002016020810190610dad9190612eea565b6001600160a01b03168152602001868685818110610ddb57634e487b7160e01b600052603260045260246000fd5b60209081029290920135909252835460018082018655600095865294829020845160029092020180546001600160a01b0319166001600160a01b0390921691909117815592015191909201555080610e328161399d565b915050610d63565b505050505050565b33610e4b611c3e565b6001600160a01b031614610e715760405162461bcd60e51b81526004016106f6906137af565b60008281526010602090815260409091208251610c4192840190612ce0565b600f546001600160a01b03163314610c1b5760405162461bcd60e51b815260206004820152600c60248201526b155b985d5d1a1bdc9a5e995960a21b60448201526064016106f6565b6000806000600660149054906101000a900460ff1615610f5757600085815260086020526040902054610f285761271060075485610f179190613900565b610f2191906138e0565b9050610f52565b60008581526008602052604090205461271090610f459086613900565b610f4f91906138e0565b90505b610f5b565b5060005b600b546001600160a01b0316925090505b9250929050565b33610f7c611c3e565b6001600160a01b031614610fa25760405162461bcd60e51b81526004016106f6906137af565b60058281548110610fc357634e487b7160e01b600052603260045260246000fd5b600091825260209091206007600890920201015460ff1661101d5760405162461bcd60e51b81526020600482015260146024820152734576656e74206973206e6f74207072697661746560601b60448201526064016106f6565b6001600160a01b0316600090815260046020908152604080832093835292905220805460ff19166001179055565b6001600160a01b03851633148061106757506110678533610650565b6110ce5760405162461bcd60e51b815260206004820152603260248201527f455243313135353a207472616e736665722063616c6c6572206973206e6f74206044820152711bdddb995c881b9bdc88185c1c1c9bdd995960721b60648201526084016106f6565b6110db8585858585612344565b5050505050565b336110eb611c3e565b6001600160a01b0316146111115760405162461bcd60e51b81526004016106f6906137af565b6006805460ff60a81b1916600160a81b179055565b6060600a6000838152602001908152602001600020805480602002602001604051908101604052809291908181526020016000905b828210156111a3576000848152602090819020604080518082019091526002850290910180546001600160a01b0316825260019081015482840152908352909201910161115b565b505050509050919050565b600a60205281600052604060002081815481106111ca57600080fd5b6000918252602090912060029091020180546001909101546001600160a01b039091169250905082565b606081518351146112595760405162461bcd60e51b815260206004820152602960248201527f455243313135353a206163636f756e747320616e6420696473206c656e677468604482015268040dad2e6dac2e8c6d60bb1b60648201526084016106f6565b600083516001600160401b0381111561128257634e487b7160e01b600052604160045260246000fd5b6040519080825280602002602001820160405280156112ab578160200160208202803683370190505b50905060005b845181101561134d576113128582815181106112dd57634e487b7160e01b600052603260045260246000fd5b602002602001015185838151811061130557634e487b7160e01b600052603260045260246000fd5b602002602001015161071b565b82828151811061133257634e487b7160e01b600052603260045260246000fd5b60209081029190910101526113468161399d565b90506112b1565b509392505050565b3361135e611c3e565b6001600160a01b0316146113845760405162461bcd60e51b81526004016106f6906137af565b8382146113c75760405162461bcd60e51b8152602060048201526011602482015270082e4e4c2f2e640c8dedce840dac2e8c6d607b1b60448201526064016106f6565b6000805b83811015611419578484828181106113f357634e487b7160e01b600052603260045260246000fd5b905060200201358261140591906138c8565b9150806114118161399d565b9150506113cb565b506127108111156114635760405162461bcd60e51b81526020600482015260146024820152730546f74616c20736861726573203e2031303030360641b60448201526064016106f6565b6000828152600a6020526040812061147a91612cbf565b60005b8581101561156557600a600084815260200190815260200160002060405180604001604052808989858181106114c357634e487b7160e01b600052603260045260246000fd5b90506020020160208101906114d89190612eea565b6001600160a01b0316815260200187878581811061150657634e487b7160e01b600052603260045260246000fd5b60209081029290920135909252835460018082018655600095865294829020845160029092020180546001600160a01b0319166001600160a01b039092169190911781559201519190920155508061155d8161399d565b91505061147d565b50505050505050565b33611577611c3e565b6001600160a01b03161461159d5760405162461bcd60e51b81526004016106f6906137af565b600680546001600160a01b0319166001600160a01b0392909216919091179055565b600f546001600160a01b031633146116085760405162461bcd60e51b815260206004820152600c60248201526b155b985d5d1a1bdc9a5e995960a21b60448201526064016106f6565b611614848484846124f7565b50505050565b33611623611c3e565b6001600160a01b0316146116495760405162461bcd60e51b81526004016106f6906137af565b8385106116895760405162461bcd60e51b815260206004820152600e60248201526d57726f6e672074696d656c696e6560901b60448201526064016106f6565b6040805161010081018252888152602081018881529181018781526060820187815260808301878152600060a0850181815260c0860189815288151560e0880190815260058054600180820183559582905298517f036b6384b5eca791c62761152d0c79bb0604c104a5fb6f4eb0703f3154bb3db06008909a02998a015598517f036b6384b5eca791c62761152d0c79bb0604c104a5fb6f4eb0703f3154bb3db189015595517f036b6384b5eca791c62761152d0c79bb0604c104a5fb6f4eb0703f3154bb3db288015593517f036b6384b5eca791c62761152d0c79bb0604c104a5fb6f4eb0703f3154bb3db387015591517f036b6384b5eca791c62761152d0c79bb0604c104a5fb6f4eb0703f3154bb3db486015590517f036b6384b5eca791c62761152d0c79bb0604c104a5fb6f4eb0703f3154bb3db585015590517f036b6384b5eca791c62761152d0c79bb0604c104a5fb6f4eb0703f3154bb3db684015590517f036b6384b5eca791c62761152d0c79bb0604c104a5fb6f4eb0703f3154bb3db7909201805460ff19169215159290921790915590547fe835538a46df8cd7ff47df55864c0898e9c41b8a4ba5996d9a757977c33975489161184e9161391f565b8888888888888860405161186998979695949392919061386d565b60405180910390a150505050505050565b33611883611c3e565b6001600160a01b0316146118a95760405162461bcd60e51b81526004016106f6906137af565b6118b36000612630565b565b600080600080600585815481106118dc57634e487b7160e01b600052603260045260246000fd5b6000918252602080832060066008909302019190910154878352600180835260408085208c8652909352919092205491925090156119315760008681526001602090815260408083208b845290915290205491505b6005868154811061195257634e487b7160e01b600052603260045260246000fd5b600091825260209091206007600890920201015460ff16801561199957506001600160a01b038916600090815260046020908152604080832089845290915290205460ff16155b80611a105750600586815481106119c057634e487b7160e01b600052603260045260246000fd5b906000526020600020906008020160020154421080611a105750600586815481106119fb57634e487b7160e01b600052603260045260246000fd5b90600052602060002090600802016003015442115b80611ac7575060058681548110611a3757634e487b7160e01b600052603260045260246000fd5b906000526020600020906008020160040154600014158015611ac7575060058681548110611a7557634e487b7160e01b600052603260045260246000fd5b9060005260206000209060080201600401548760058881548110611aa957634e487b7160e01b600052603260045260246000fd5b906000526020600020906008020160050154611ac591906138c8565b115b80611b6a575060058681548110611aee57634e487b7160e01b600052603260045260246000fd5b906000526020600020906008020160000154600014158015611b6a575060058681548110611b2c57634e487b7160e01b600052603260045260246000fd5b600091825260208083206008909202909101548883526002825260408084206001600160a01b038e168552909252912054611b689089906138c8565b115b80611c19575060058681548110611b9157634e487b7160e01b600052603260045260246000fd5b906000526020600020906008020160000154600014158015611c19575060058681548110611bcf57634e487b7160e01b600052603260045260246000fd5b60009182526020808320600160089093020191909101548883526003825260408084208c855283528084206001600160a01b038e168552909252912054611c179089906138c8565b115b15611c22575060005b60065491996001600160a01b0390921698509650945050505050565b6000546001600160a01b03165b90565b33611c57611c3e565b6001600160a01b031614611c7d5760405162461bcd60e51b81526004016106f6906137af565b6001600160a01b038116611cc85760405162461bcd60e51b815260206004820152601260248201527143616e74207365742030206164647265737360701b60448201526064016106f6565b600b546001600160a01b0382811691161415611d315760405162461bcd60e51b815260206004820152602260248201527f54686973206164647265737320697320616c726561647920612072656365697660448201526132b960f11b60648201526084016106f6565b600b80546001600160a01b0319166001600160a01b0392909216919091179055565b60606009805480602002602001604051908101604052809291908181526020016000905b82821015611dbf576000848152602090819020604080518082019091526002850290910180546001600160a01b03168252600190810154828401529083529092019101611d77565b50505050905090565b33611dd1611c3e565b6001600160a01b031614611df75760405162461bcd60e51b81526004016106f6906137af565b6006805460ff60a01b1916600160a01b179055565b611e17338383612680565b5050565b33611e24611c3e565b6001600160a01b031614611e4a5760405162461bcd60e51b81526004016106f6906137af565b612328811115611e925760405162461bcd60e51b8152602060048201526013602482015272526f79616c7479206973206f7665722039302560681b60448201526064016106f6565b600755565b33611ea0611c3e565b6001600160a01b031614611ec65760405162461bcd60e51b81526004016106f6906137af565b612328821115611f0e5760405162461bcd60e51b8152602060048201526013602482015272526f79616c7479206973206f7665722039302560681b60448201526064016106f6565b600090815260086020526040902055565b33611f28611c3e565b6001600160a01b031614611f4e5760405162461bcd60e51b81526004016106f6906137af565b610c4183838360405180604001604052806002815260200161060f60f31b815250612761565b60058181548110611f8457600080fd5b6000918252602090912060089091020180546001820154600283015460038401546004850154600586015460068701546007909701549597509395929491939092909160ff1688565b33611fd6611c3e565b6001600160a01b031614611ffc5760405162461bcd60e51b81526004016106f6906137af565b6006805460ff60a01b19169055565b6001600160a01b03851633148061202757506120278533610650565b6120855760405162461bcd60e51b815260206004820152602960248201527f455243313135353a2063616c6c6572206973206e6f74206f776e6572206e6f7260448201526808185c1c1c9bdd995960ba1b60648201526084016106f6565b6110db85858585856128c9565b3361209b611c3e565b6001600160a01b0316146120c15760405162461bcd60e51b81526004016106f6906137af565b6001600160a01b0381166121265760405162461bcd60e51b815260206004820152602660248201527f4f776e61626c653a206e6577206f776e657220697320746865207a65726f206160448201526564647265737360d01b60648201526084016106f6565b61212f81612630565b50565b3361213b611c3e565b6001600160a01b0316146121615760405162461bcd60e51b81526004016106f6906137af565b6006805460ff60a81b19169055565b60006001600160e01b0319821663152a902d60e11b14806121a157506001600160e01b0319821663155c914760e31b145b806121bc57506001600160e01b03198216631189900560e11b145b806107d457506107d4826129e1565b8051611e1790600e906020840190612ce0565b6060600e80546121ed90613936565b80601f016020809104026020016040519081016040528092919081815260200182805461221990613936565b80156122665780601f1061223b57610100808354040283529160200191612266565b820191906000526020600020905b81548152906001019060200180831161224957829003601f168201915b50505050509050919050565b6001600160a01b0384166122985760405162461bcd60e51b81526004016106f69061382c565b336122b2816000876122a988612a31565b6110db88612a31565b6000848152600c602090815260408083206001600160a01b0389168452909152812080548592906122e49084906138c8565b909155505060408051858152602081018590526001600160a01b0380881692600092918516917fc3d58168c5ae7397731d063d5bbf3d657854427343f4c083240f7aacaa2d0f62910160405180910390a46110db81600087878787612a8a565b81518351146123655760405162461bcd60e51b81526004016106f6906137e4565b6001600160a01b03841661238b5760405162461bcd60e51b81526004016106f690613720565b3360005b84518110156124915760008582815181106123ba57634e487b7160e01b600052603260045260246000fd5b6020026020010151905060008583815181106123e657634e487b7160e01b600052603260045260246000fd5b6020908102919091018101516000848152600c835260408082206001600160a01b038e1683529093529190912054909150818110156124375760405162461bcd60e51b81526004016106f690613765565b6000838152600c602090815260408083206001600160a01b038e8116855292528083208585039055908b168252812080548492906124769084906138c8565b925050819055505050508061248a9061399d565b905061238f565b50846001600160a01b0316866001600160a01b0316826001600160a01b03167f4a39dc06d4c0dbc64b70af90fd698a233a518aa5d07e595d983b8c0526c8f7fb87876040516124e1929190613697565b60405180910390a4610e3a818787878787612bf5565b6005818154811061251857634e487b7160e01b600052603260045260246000fd5b9060005260206000209060080201600001546000146125e35760008181526002602090815260408083206001600160a01b0388168452909152812080548492906125639084906138c8565b9091555050600580548290811061258a57634e487b7160e01b600052603260045260246000fd5b9060005260206000209060080201600101546000146125e357600081815260036020908152604080832086845282528083206001600160a01b0388168452909152812080548492906125dd9084906138c8565b90915550505b816005828154811061260557634e487b7160e01b600052603260045260246000fd5b9060005260206000209060080201600501600082825461262591906138c8565b909155505050505050565b600080546001600160a01b038381166001600160a01b0319831681178455604051919092169283917f8be0079c531659141344cd1fd0a4f28419497f9722a3daafe3b4186f6b6457e09190a35050565b816001600160a01b0316836001600160a01b031614156126f45760405162461bcd60e51b815260206004820152602960248201527f455243313135353a2073657474696e6720617070726f76616c20737461747573604482015268103337b91039b2b63360b91b60648201526084016106f6565b6001600160a01b038381166000818152600d6020908152604080832094871680845294825291829020805460ff191686151590811790915591519182527f17307eab39ab6107e8899845ad3d59bd9653f200f220920489ca2b5937696c31910160405180910390a3505050565b6001600160a01b0384166127875760405162461bcd60e51b81526004016106f69061382c565b81518351146127a85760405162461bcd60e51b81526004016106f6906137e4565b3360005b8451811015612861578381815181106127d557634e487b7160e01b600052603260045260246000fd5b6020026020010151600c600087848151811061280157634e487b7160e01b600052603260045260246000fd5b602002602001015181526020019081526020016000206000886001600160a01b03166001600160a01b03168152602001908152602001600020600082825461284991906138c8565b909155508190506128598161399d565b9150506127ac565b50846001600160a01b031660006001600160a01b0316826001600160a01b03167f4a39dc06d4c0dbc64b70af90fd698a233a518aa5d07e595d983b8c0526c8f7fb87876040516128b2929190613697565b60405180910390a46110db81600087878787612bf5565b6001600160a01b0384166128ef5760405162461bcd60e51b81526004016106f690613720565b336128ff8187876122a988612a31565b6000848152600c602090815260408083206001600160a01b038a168452909152902054838110156129425760405162461bcd60e51b81526004016106f690613765565b6000858152600c602090815260408083206001600160a01b038b81168552925280832087850390559088168252812080548692906129819084906138c8565b909155505060408051868152602081018690526001600160a01b03808916928a821692918616917fc3d58168c5ae7397731d063d5bbf3d657854427343f4c083240f7aacaa2d0f62910160405180910390a4611565828888888888612a8a565b60006001600160e01b03198216636cdb3d1360e11b1480612a1257506001600160e01b031982166303a24d0760e21b145b806107d457506301ffc9a760e01b6001600160e01b03198316146107d4565b60408051600180825281830190925260609160009190602080830190803683370190505090508281600081518110612a7957634e487b7160e01b600052603260045260246000fd5b602090810291909101015292915050565b6001600160a01b0384163b15610e3a5760405163f23a6e6160e01b81526001600160a01b0385169063f23a6e6190612ace90899089908890889088906004016135e7565b602060405180830381600087803b158015612ae857600080fd5b505af1925050508015612b18575060408051601f3d908101601f19168201909252612b159181019061332e565b60015b612bc557612b246139e4565b806308c379a01415612b5e5750612b396139fb565b80612b445750612b60565b8060405162461bcd60e51b81526004016106f691906136c5565b505b60405162461bcd60e51b815260206004820152603460248201527f455243313135353a207472616e7366657220746f206e6f6e20455243313135356044820152732932b1b2b4bb32b91034b6b83632b6b2b73a32b960611b60648201526084016106f6565b6001600160e01b0319811663f23a6e6160e01b146115655760405162461bcd60e51b81526004016106f6906136d8565b6001600160a01b0384163b15610e3a5760405163bc197c8160e01b81526001600160a01b0385169063bc197c8190612c399089908990889088908890600401613589565b602060405180830381600087803b158015612c5357600080fd5b505af1925050508015612c83575060408051601f3d908101601f19168201909252612c809181019061332e565b60015b612c8f57612b246139e4565b6001600160e01b0319811663bc197c8160e01b146115655760405162461bcd60e51b81526004016106f6906136d8565b508054600082556002029060005260206000209081019061212f9190612d64565b828054612cec90613936565b90600052602060002090601f016020900481019282612d0e5760008555612d54565b82601f10612d2757805160ff1916838001178555612d54565b82800160010185558215612d54579182015b82811115612d54578251825591602001919060010190612d39565b50612d60929150612d8a565b5090565b5b80821115612d605780546001600160a01b031916815560006001820155600201612d65565b5b80821115612d605760008155600101612d8b565b80356001600160a01b03811681146107d757600080fd5b60008083601f840112612dc7578182fd5b5081356001600160401b03811115612ddd578182fd5b6020830191508360208260051b8501011115610f6c57600080fd5b600082601f830112612e08578081fd5b81356020612e15826138a5565b604051612e228282613971565b8381528281019150858301600585901b87018401881015612e41578586fd5b855b85811015612e5f57813584529284019290840190600101612e43565b5090979650505050505050565b803580151581146107d757600080fd5b600082601f830112612e8c578081fd5b81356001600160401b03811115612ea557612ea56139ce565b604051612ebc601f8301601f191660200182613971565b818152846020838601011115612ed0578283fd5b816020850160208301379081016020019190915292915050565b600060208284031215612efb578081fd5b612f0482612d9f565b9392505050565b60008060408385031215612f1d578081fd5b612f2683612d9f565b9150612f3460208401612d9f565b90509250929050565b600080600080600060a08688031215612f54578081fd5b612f5d86612d9f565b9450612f6b60208701612d9f565b935060408601356001600160401b0380821115612f86578283fd5b612f9289838a01612df8565b94506060880135915080821115612fa7578283fd5b612fb389838a01612df8565b93506080880135915080821115612fc8578283fd5b50612fd588828901612e7c565b9150509295509295909350565b600080600080600060a08688031215612ff9578081fd5b61300286612d9f565b945061301060208701612d9f565b9350604086013592506060860135915060808601356001600160401b03811115613038578182fd5b612fd588828901612e7c565b600080600060608486031215613058578283fd5b61306184612d9f565b925060208401356001600160401b038082111561307c578384fd5b61308887838801612df8565b9350604086013591508082111561309d578283fd5b506130aa86828701612df8565b9150509250925092565b600080604083850312156130c6578182fd5b6130cf83612d9f565b9150612f3460208401612e6c565b600080604083850312156130ef578081fd5b6130f883612d9f565b946020939093013593505050565b60008060006060848603121561311a578081fd5b61312384612d9f565b95602085013595506040909401359392505050565b6000806000806080858703121561314d578182fd5b61315685612d9f565b966020860135965060408601359560600135945092505050565b60008060008060408587031215613185578182fd5b84356001600160401b038082111561319b578384fd5b6131a788838901612db6565b909650945060208701359150808211156131bf578384fd5b506131cc87828801612db6565b95989497509550505050565b6000806000806000606086880312156131ef578283fd5b85356001600160401b0380821115613205578485fd5b61321189838a01612db6565b90975095506020880135915080821115613229578485fd5b5061323688828901612db6565b96999598509660400135949350505050565b6000806040838503121561325a578182fd5b82356001600160401b0380821115613270578384fd5b818501915085601f830112613283578384fd5b81356020613290826138a5565b60405161329d8282613971565b8381528281019150858301600585901b870184018b10156132bc578889fd5b8896505b848710156132e5576132d181612d9f565b8352600196909601959183019183016132c0565b50965050860135925050808211156132fb578283fd5b5061330885828601612df8565b9150509250929050565b600060208284031215613323578081fd5b8135612f0481613a8c565b60006020828403121561333f578081fd5b8151612f0481613a8c565b60006020828403121561335b578081fd5b81356001600160401b03811115613370578182fd5b61337c84828501612e7c565b949350505050565b600060208284031215613395578081fd5b5035919050565b600080604083850312156133ae578182fd5b82359150612f3460208401612d9f565b600080604083850312156133d0578182fd5b8235915060208301356001600160401b038111156133ec578182fd5b61330885828601612e7c565b6000806040838503121561340a578182fd5b50508035926020909101359150565b60008060006060848603121561342d578081fd5b505081359360208301359350604090920135919050565b600080600080600080600060e0888a03121561345e578485fd5b873596506020880135955060408801359450606088013593506080880135925060a0880135915061349160c08901612e6c565b905092959891949750929550565b600080600080600080600080610100898b0312156134bb578182fd5b883597506020890135965060408901359550606089013594506080890135935060a0890135925060c089013591506134f560e08a01612e6c565b90509295985092959890939650565b6000815180845260208085019450808401835b8381101561353357815187529582019590820190600101613517565b509495945050505050565b60008151808452815b8181101561356357602081850181015186830182015201613547565b818111156135745782602083870101525b50601f01601f19169290920160200192915050565b6001600160a01b0386811682528516602082015260a0604082018190526000906135b590830186613504565b82810360608401526135c78186613504565b905082810360808401526135db818561353e565b98975050505050505050565b6001600160a01b03868116825285166020820152604081018490526060810183905260a0608082018190526000906136219083018461353e565b979650505050505050565b602080825282518282018190526000919060409081850190868401855b8281101561367757815180516001600160a01b03168552860151868501529284019290850190600101613649565b5091979650505050505050565b600060208252612f046020830184613504565b6000604082526136aa6040830185613504565b82810360208401526136bc8185613504565b95945050505050565b600060208252612f04602083018461353e565b60208082526028908201527f455243313135353a204552433131353552656365697665722072656a656374656040820152676420746f6b656e7360c01b606082015260800190565b60208082526025908201527f455243313135353a207472616e7366657220746f20746865207a65726f206164604082015264647265737360d81b606082015260800190565b6020808252602a908201527f455243313135353a20696e73756666696369656e742062616c616e636520666f60408201526939103a3930b739b332b960b11b606082015260800190565b6020808252818101527f4f776e61626c653a2063616c6c6572206973206e6f7420746865206f776e6572604082015260600190565b60208082526028908201527f455243313135353a2069647320616e6420616d6f756e7473206c656e677468206040820152670dad2e6dac2e8c6d60c31b606082015260800190565b60208082526021908201527f455243313135353a206d696e7420746f20746865207a65726f206164647265736040820152607360f81b606082015260800190565b978852602088019690965260408701949094526060860192909252608085015260a084015260c0830152151560e08201526101000190565b60006001600160401b038211156138be576138be6139ce565b5060051b60200190565b600082198211156138db576138db6139b8565b500190565b6000826138fb57634e487b7160e01b81526012600452602481fd5b500490565b600081600019048311821515161561391a5761391a6139b8565b500290565b600082821015613931576139316139b8565b500390565b600181811c9082168061394a57607f821691505b6020821081141561396b57634e487b7160e01b600052602260045260246000fd5b50919050565b601f8201601f191681016001600160401b0381118282101715613996576139966139ce565b6040525050565b60006000198214156139b1576139b16139b8565b5060010190565b634e487b7160e01b600052601160045260246000fd5b634e487b7160e01b600052604160045260246000fd5b600060033d1115611c4b57600481823e5160e01c90565b600060443d1015613a0b57611c4b565b6040516003193d81016004833e81513d6001600160401b038160248401118184111715613a3c575050505050611c4b565b8285019150815181811115613a5657505050505050611c4b565b843d8701016020828501011115613a7257505050505050611c4b565b613a8160208286010187613971565b509094505050505090565b6001600160e01b03198116811461212f57600080fdfea2646970667358221220f4f7d6df112c471676555761333e049b9e71632a665ef41a8a010d213feaff9064736f6c63430008030033",
	"linkReferences": {},
	"deployedLinkReferences": {}
}