{
  "_format": "hh-sol-artifact-1",
  "contractName": "DecryptMarketplace",
  "sourceName": "contracts/Marketplace/DecryptMarketplace.sol",
  "abi": [
    {
      "anonymous": false,
      "inputs": [
        {
          "indexed": false,
          "internalType": "address",
          "name": "previousAdmin",
          "type": "address"
        },
        {
          "indexed": false,
          "internalType": "address",
          "name": "newAdmin",
          "type": "address"
        }
      ],
      "name": "AdminChanged",
      "type": "event"
    },
    {
      "anonymous": false,
      "inputs": [
        {
          "indexed": true,
          "internalType": "address",
          "name": "beacon",
          "type": "address"
        }
      ],
      "name": "BeaconUpgraded",
      "type": "event"
    },
    {
      "anonymous": false,
      "inputs": [
        {
          "indexed": false,
          "internalType": "address",
          "name": "buyer",
          "type": "address"
        },
        {
          "indexed": false,
          "internalType": "address",
          "name": "seller",
          "type": "address"
        },
        {
          "indexed": false,
          "internalType": "address",
          "name": "tokenAddress",
          "type": "address"
        },
        {
          "indexed": false,
          "internalType": "uint256[]",
          "name": "tokenId",
          "type": "uint256[]"
        },
        {
          "indexed": false,
          "internalType": "uint256",
          "name": "amount",
          "type": "uint256"
        }
      ],
      "name": "BundleSale",
      "type": "event"
    },
    {
      "anonymous": false,
      "inputs": [
        {
          "indexed": false,
          "internalType": "address",
          "name": "seller",
          "type": "address"
        },
        {
          "indexed": false,
          "internalType": "address",
          "name": "tokenAddress",
          "type": "address"
        },
        {
          "indexed": false,
          "internalType": "uint256",
          "name": "tokenId",
          "type": "uint256"
        },
        {
          "indexed": false,
          "internalType": "enum DecryptMarketplace.ListingType",
          "name": "listingType",
          "type": "uint8"
        }
      ],
      "name": "CancelledOrder",
      "type": "event"
    },
    {
      "anonymous": false,
      "inputs": [
        {
          "indexed": false,
          "internalType": "address",
          "name": "tokenAddress",
          "type": "address"
        },
        {
          "indexed": false,
          "internalType": "address",
          "name": "royaltyReceiver",
          "type": "address"
        },
        {
          "components": [
            {
              "internalType": "address",
              "name": "collaborator",
              "type": "address"
            },
            {
              "internalType": "uint256",
              "name": "share",
              "type": "uint256"
            }
          ],
          "indexed": false,
          "internalType": "struct RoyaltyShare[]",
          "name": "collaborators",
          "type": "tuple[]"
        },
        {
          "indexed": false,
          "internalType": "uint256",
          "name": "royaltyAmount",
          "type": "uint256"
        }
      ],
      "name": "DistributedRoyaltyPaid",
      "type": "event"
    },
    {
      "anonymous": false,
      "inputs": [
        {
          "indexed": false,
          "internalType": "uint8",
          "name": "version",
          "type": "uint8"
        }
      ],
      "name": "Initialized",
      "type": "event"
    },
    {
      "anonymous": false,
      "inputs": [
        {
          "indexed": false,
          "internalType": "address",
          "name": "",
          "type": "address"
        }
      ],
      "name": "NewAdminAddress",
      "type": "event"
    },
    {
      "anonymous": false,
      "inputs": [
        {
          "indexed": false,
          "internalType": "uint256",
          "name": "newMarketplaceFee",
          "type": "uint256"
        }
      ],
      "name": "NewMarketplaceFee",
      "type": "event"
    },
    {
      "anonymous": false,
      "inputs": [
        {
          "indexed": false,
          "internalType": "uint256",
          "name": "newRoyaltyLimit",
          "type": "uint256"
        }
      ],
      "name": "NewRoyaltyLimit",
      "type": "event"
    },
    {
      "anonymous": false,
      "inputs": [
        {
          "indexed": false,
          "internalType": "uint256",
          "name": "",
          "type": "uint256"
        }
      ],
      "name": "NewSuperAdminShare",
      "type": "event"
    },
    {
      "anonymous": false,
      "inputs": [
        {
          "indexed": true,
          "internalType": "address",
          "name": "previousOwner",
          "type": "address"
        },
        {
          "indexed": true,
          "internalType": "address",
          "name": "newOwner",
          "type": "address"
        }
      ],
      "name": "OwnershipTransferred",
      "type": "event"
    },
    {
      "anonymous": false,
      "inputs": [
        {
          "indexed": false,
          "internalType": "address",
          "name": "tokenAddress",
          "type": "address"
        },
        {
          "indexed": false,
          "internalType": "address",
          "name": "royaltyReceiver",
          "type": "address"
        },
        {
          "indexed": false,
          "internalType": "uint256",
          "name": "royaltyAmount",
          "type": "uint256"
        }
      ],
      "name": "RoyaltyPaid",
      "type": "event"
    },
    {
      "anonymous": false,
      "inputs": [
        {
          "indexed": false,
          "internalType": "address",
          "name": "buyer",
          "type": "address"
        },
        {
          "indexed": false,
          "internalType": "address",
          "name": "seller",
          "type": "address"
        },
        {
          "indexed": false,
          "internalType": "address",
          "name": "tokenAddress",
          "type": "address"
        },
        {
          "indexed": false,
          "internalType": "uint256",
          "name": "tokenId",
          "type": "uint256"
        },
        {
          "indexed": false,
          "internalType": "uint256",
          "name": "amount",
          "type": "uint256"
        },
        {
          "indexed": false,
          "internalType": "uint256",
          "name": "quantity",
          "type": "uint256"
        }
      ],
      "name": "Sale",
      "type": "event"
    },
    {
      "anonymous": false,
      "inputs": [
        {
          "indexed": true,
          "internalType": "address",
          "name": "implementation",
          "type": "address"
        }
      ],
      "name": "Upgraded",
      "type": "event"
    },
    {
      "inputs": [],
      "name": "admin",
      "outputs": [
        {
          "internalType": "address payable",
          "name": "",
          "type": "address"
        }
      ],
      "stateMutability": "view",
      "type": "function"
    },
    {
      "inputs": [
        {
          "internalType": "address",
          "name": "",
          "type": "address"
        },
        {
          "internalType": "bytes32",
          "name": "",
          "type": "bytes32"
        }
      ],
      "name": "amountOf1155TokensLeftToSell",
      "outputs": [
        {
          "internalType": "uint256",
          "name": "",
          "type": "uint256"
        }
      ],
      "stateMutability": "view",
      "type": "function"
    },
    {
      "inputs": [
        {
          "components": [
            {
              "internalType": "address",
              "name": "user",
              "type": "address"
            },
            {
              "internalType": "address",
              "name": "tokenAddress",
              "type": "address"
            },
            {
              "internalType": "uint256",
              "name": "tokenId",
              "type": "uint256"
            },
            {
              "internalType": "uint256",
              "name": "quantity",
              "type": "uint256"
            },
            {
              "internalType": "enum DecryptMarketplace.ListingType",
              "name": "listingType",
              "type": "uint8"
            },
            {
              "internalType": "address",
              "name": "paymentToken",
              "type": "address"
            },
            {
              "internalType": "uint256",
              "name": "value",
              "type": "uint256"
            },
            {
              "internalType": "uint256",
              "name": "deadline",
              "type": "uint256"
            },
            {
              "internalType": "uint256[]",
              "name": "bundleTokens",
              "type": "uint256[]"
            },
            {
              "internalType": "uint256[]",
              "name": "bundleTokensQuantity",
              "type": "uint256[]"
            },
            {
              "internalType": "uint256",
              "name": "salt",
              "type": "uint256"
            }
          ],
          "internalType": "struct DecryptMarketplace.Order",
          "name": "_order",
          "type": "tuple"
        }
      ],
      "name": "buildHash",
      "outputs": [
        {
          "internalType": "bytes32",
          "name": "",
          "type": "bytes32"
        }
      ],
      "stateMutability": "view",
      "type": "function"
    },
    {
      "inputs": [
        {
          "components": [
            {
              "internalType": "address",
              "name": "user",
              "type": "address"
            },
            {
              "internalType": "address",
              "name": "tokenAddress",
              "type": "address"
            },
            {
              "internalType": "uint256",
              "name": "tokenId",
              "type": "uint256"
            },
            {
              "internalType": "uint256",
              "name": "quantity",
              "type": "uint256"
            },
            {
              "internalType": "enum DecryptMarketplace.ListingType",
              "name": "listingType",
              "type": "uint8"
            },
            {
              "internalType": "address",
              "name": "paymentToken",
              "type": "address"
            },
            {
              "internalType": "uint256",
              "name": "value",
              "type": "uint256"
            },
            {
              "internalType": "uint256",
              "name": "deadline",
              "type": "uint256"
            },
            {
              "internalType": "uint256[]",
              "name": "bundleTokens",
              "type": "uint256[]"
            },
            {
              "internalType": "uint256[]",
              "name": "bundleTokensQuantity",
              "type": "uint256[]"
            },
            {
              "internalType": "uint256",
              "name": "salt",
              "type": "uint256"
            }
          ],
          "internalType": "struct DecryptMarketplace.Order",
          "name": "_usersOrder",
          "type": "tuple"
        }
      ],
      "name": "cancelOrder",
      "outputs": [],
      "stateMutability": "nonpayable",
      "type": "function"
    },
    {
      "inputs": [
        {
          "components": [
            {
              "internalType": "address",
              "name": "user",
              "type": "address"
            },
            {
              "internalType": "address",
              "name": "tokenAddress",
              "type": "address"
            },
            {
              "internalType": "uint256",
              "name": "tokenId",
              "type": "uint256"
            },
            {
              "internalType": "uint256",
              "name": "quantity",
              "type": "uint256"
            },
            {
              "internalType": "enum DecryptMarketplace.ListingType",
              "name": "listingType",
              "type": "uint8"
            },
            {
              "internalType": "address",
              "name": "paymentToken",
              "type": "address"
            },
            {
              "internalType": "uint256",
              "name": "value",
              "type": "uint256"
            },
            {
              "internalType": "uint256",
              "name": "deadline",
              "type": "uint256"
            },
            {
              "internalType": "uint256[]",
              "name": "bundleTokens",
              "type": "uint256[]"
            },
            {
              "internalType": "uint256[]",
              "name": "bundleTokensQuantity",
              "type": "uint256[]"
            },
            {
              "internalType": "uint256",
              "name": "salt",
              "type": "uint256"
            }
          ],
          "internalType": "struct DecryptMarketplace.Order",
          "name": "_sellerOrder",
          "type": "tuple"
        },
        {
          "components": [
            {
              "internalType": "uint8",
              "name": "v",
              "type": "uint8"
            },
            {
              "internalType": "bytes32",
              "name": "r",
              "type": "bytes32"
            },
            {
              "internalType": "bytes32",
              "name": "s",
              "type": "bytes32"
            }
          ],
          "internalType": "struct DecryptMarketplace.Sig",
          "name": "_sellerSig",
          "type": "tuple"
        },
        {
          "components": [
            {
              "internalType": "address",
              "name": "user",
              "type": "address"
            },
            {
              "internalType": "address",
              "name": "tokenAddress",
              "type": "address"
            },
            {
              "internalType": "uint256",
              "name": "tokenId",
              "type": "uint256"
            },
            {
              "internalType": "uint256",
              "name": "quantity",
              "type": "uint256"
            },
            {
              "internalType": "enum DecryptMarketplace.ListingType",
              "name": "listingType",
              "type": "uint8"
            },
            {
              "internalType": "address",
              "name": "paymentToken",
              "type": "address"
            },
            {
              "internalType": "uint256",
              "name": "value",
              "type": "uint256"
            },
            {
              "internalType": "uint256",
              "name": "deadline",
              "type": "uint256"
            },
            {
              "internalType": "uint256[]",
              "name": "bundleTokens",
              "type": "uint256[]"
            },
            {
              "internalType": "uint256[]",
              "name": "bundleTokensQuantity",
              "type": "uint256[]"
            },
            {
              "internalType": "uint256",
              "name": "salt",
              "type": "uint256"
            }
          ],
          "internalType": "struct DecryptMarketplace.Order",
          "name": "_buyerOrder",
          "type": "tuple"
        },
        {
          "components": [
            {
              "internalType": "uint8",
              "name": "v",
              "type": "uint8"
            },
            {
              "internalType": "bytes32",
              "name": "r",
              "type": "bytes32"
            },
            {
              "internalType": "bytes32",
              "name": "s",
              "type": "bytes32"
            }
          ],
          "internalType": "struct DecryptMarketplace.Sig",
          "name": "_buyerSig",
          "type": "tuple"
        }
      ],
      "name": "completeOrder",
      "outputs": [],
      "stateMutability": "payable",
      "type": "function"
    },
    {
      "inputs": [],
      "name": "implementationAddress",
      "outputs": [
        {
          "internalType": "address",
          "name": "",
          "type": "address"
        }
      ],
      "stateMutability": "view",
      "type": "function"
    },
    {
      "inputs": [
        {
          "internalType": "string",
          "name": "name",
          "type": "string"
        },
        {
          "internalType": "string",
          "name": "version",
          "type": "string"
        },
        {
          "internalType": "uint256",
          "name": "_marketplaceFee",
          "type": "uint256"
        },
        {
          "internalType": "uint256",
          "name": "_superAdminShare",
          "type": "uint256"
        },
        {
          "internalType": "address payable",
          "name": "_admin",
          "type": "address"
        },
        {
          "internalType": "uint256",
          "name": "_royaltyLimit",
          "type": "uint256"
        }
      ],
      "name": "initialize",
      "outputs": [],
      "stateMutability": "nonpayable",
      "type": "function"
    },
    {
      "inputs": [],
      "name": "marketplaceFee",
      "outputs": [
        {
          "internalType": "uint256",
          "name": "",
          "type": "uint256"
        }
      ],
      "stateMutability": "view",
      "type": "function"
    },
    {
      "inputs": [
        {
          "internalType": "address",
          "name": "",
          "type": "address"
        },
        {
          "internalType": "bytes32",
          "name": "",
          "type": "bytes32"
        }
      ],
      "name": "orderIsCancelledOrCompleted",
      "outputs": [
        {
          "internalType": "bool",
          "name": "",
          "type": "bool"
        }
      ],
      "stateMutability": "view",
      "type": "function"
    },
    {
      "inputs": [],
      "name": "owner",
      "outputs": [
        {
          "internalType": "address",
          "name": "",
          "type": "address"
        }
      ],
      "stateMutability": "view",
      "type": "function"
    },
    {
      "inputs": [
        {
          "internalType": "address",
          "name": "ownerAddress",
          "type": "address"
        },
        {
          "internalType": "address",
          "name": "tokenAddress",
          "type": "address"
        },
        {
          "internalType": "uint256",
          "name": "tokenId",
          "type": "uint256"
        },
        {
          "internalType": "uint256",
          "name": "eventId",
          "type": "uint256"
        },
        {
          "internalType": "uint256",
          "name": "quantity",
          "type": "uint256"
        }
      ],
      "name": "prePurchase",
      "outputs": [],
      "stateMutability": "payable",
      "type": "function"
    },
    {
      "inputs": [],
      "name": "proxiableUUID",
      "outputs": [
        {
          "internalType": "bytes32",
          "name": "",
          "type": "bytes32"
        }
      ],
      "stateMutability": "view",
      "type": "function"
    },
    {
      "inputs": [
        {
          "internalType": "bytes32",
          "name": "hash",
          "type": "bytes32"
        },
        {
          "components": [
            {
              "internalType": "uint8",
              "name": "v",
              "type": "uint8"
            },
            {
              "internalType": "bytes32",
              "name": "r",
              "type": "bytes32"
            },
            {
              "internalType": "bytes32",
              "name": "s",
              "type": "bytes32"
            }
          ],
          "internalType": "struct DecryptMarketplace.Sig",
          "name": "_sig",
          "type": "tuple"
        }
      ],
      "name": "recoverAddress",
      "outputs": [
        {
          "internalType": "address",
          "name": "",
          "type": "address"
        }
      ],
      "stateMutability": "view",
      "type": "function"
    },
    {
      "inputs": [],
      "name": "renounceOwnership",
      "outputs": [],
      "stateMutability": "nonpayable",
      "type": "function"
    },
    {
      "inputs": [
        {
          "internalType": "address",
          "name": "tokenAddress",
          "type": "address"
        },
        {
          "internalType": "bool",
          "name": "forbid",
          "type": "bool"
        }
      ],
      "name": "restrictTokenToThisMarketplace",
      "outputs": [],
      "stateMutability": "nonpayable",
      "type": "function"
    },
    {
      "inputs": [],
      "name": "royaltyLimit",
      "outputs": [
        {
          "internalType": "uint256",
          "name": "",
          "type": "uint256"
        }
      ],
      "stateMutability": "view",
      "type": "function"
    },
    {
      "inputs": [
        {
          "internalType": "address payable",
          "name": "_admin",
          "type": "address"
        }
      ],
      "name": "setAdminAddress",
      "outputs": [],
      "stateMutability": "nonpayable",
      "type": "function"
    },
    {
      "inputs": [
        {
          "internalType": "uint256",
          "name": "_marketplaceFee",
          "type": "uint256"
        }
      ],
      "name": "setMarketplaceFee",
      "outputs": [],
      "stateMutability": "nonpayable",
      "type": "function"
    },
    {
      "inputs": [
        {
          "internalType": "uint256",
          "name": "_royaltyLimit",
          "type": "uint256"
        }
      ],
      "name": "setRoyaltyLimit",
      "outputs": [],
      "stateMutability": "nonpayable",
      "type": "function"
    },
    {
      "inputs": [
        {
          "internalType": "uint256",
          "name": "_superAdminShare",
          "type": "uint256"
        }
      ],
      "name": "setSuperAdminShare",
      "outputs": [],
      "stateMutability": "nonpayable",
      "type": "function"
    },
    {
      "inputs": [],
      "name": "superAdminShare",
      "outputs": [
        {
          "internalType": "uint256",
          "name": "",
          "type": "uint256"
        }
      ],
      "stateMutability": "view",
      "type": "function"
    },
    {
      "inputs": [
        {
          "internalType": "address",
          "name": "newOwner",
          "type": "address"
        }
      ],
      "name": "transferOwnership",
      "outputs": [],
      "stateMutability": "nonpayable",
      "type": "function"
    },
    {
      "inputs": [
        {
          "internalType": "address",
          "name": "newImplementation",
          "type": "address"
        }
      ],
      "name": "upgradeTo",
      "outputs": [],
      "stateMutability": "nonpayable",
      "type": "function"
    },
    {
      "inputs": [
        {
          "internalType": "address",
          "name": "newImplementation",
          "type": "address"
        },
        {
          "internalType": "bytes",
          "name": "data",
          "type": "bytes"
        }
      ],
      "name": "upgradeToAndCall",
      "outputs": [],
      "stateMutability": "payable",
      "type": "function"
    },
    {
      "inputs": [
        {
          "internalType": "uint256",
          "name": "amount",
          "type": "uint256"
        },
        {
          "internalType": "address payable",
          "name": "receiver",
          "type": "address"
        },
        {
          "internalType": "address",
          "name": "tokenAddress",
          "type": "address"
        }
      ],
      "name": "withdrawERC20",
      "outputs": [],
      "stateMutability": "nonpayable",
      "type": "function"
    },
    {
      "inputs": [
        {
          "internalType": "uint256",
          "name": "amount",
          "type": "uint256"
        },
        {
          "internalType": "address payable",
          "name": "receiver",
          "type": "address"
        }
      ],
      "name": "withdrawETH",
      "outputs": [],
      "stateMutability": "nonpayable",
      "type": "function"
    }
  ],
  "bytecode": "0x60a06040523060805234801561001457600080fd5b5060805161595a6200004d60003960008181610666015281816106a601528181610887015281816108c70152611915015261595a6000f3fe6080604052600436106101815760003560e01c80636d22dca5116100d1578063b97a23191161008a578063f04bdf5c11610064578063f04bdf5c1461044f578063f2fde38b1461046f578063f851a4401461048f578063f9bc98c5146104b057600080fd5b8063b97a2319146103ce578063cd5269d9146103e3578063d3435d5a1461042f57600080fd5b80636d22dca5146102f7578063715018a614610330578063846f94051461034557806387e622511461035c5780638da5cb5b1461037c5780639407ea98146103ae57600080fd5b80634f1ef2861161013e57806352d1902d1161011857806352d1902d1461028b5780635d29dab4146102a0578063621daef5146102c05780636a166964146102e057600080fd5b80634f1ef286146102525780634f7cc86b1461026557806350572f7e1461027857600080fd5b80631fe9f030146101865780632c1e816d146101b0578063309d4480146101d257806336118b52146101f25780633659cfe6146102125780634764c7eb14610232575b600080fd5b34801561019257600080fd5b5061019d6101315481565b6040519081526020015b60405180910390f35b3480156101bc57600080fd5b506101d06101cb366004614e12565b6104d0565b005b3480156101de57600080fd5b506101d06101ed366004614e3d565b610578565b3480156101fe57600080fd5b506101d061020d366004614e76565b6105df565b34801561021e57600080fd5b506101d061022d366004614e12565b61065c565b34801561023e57600080fd5b506101d061024d366004614eb4565b610724565b6101d0610260366004614f59565b61087d565b6101d0610273366004615013565b610936565b6101d061028636600461509b565b6110cf565b34801561029757600080fd5b5061019d611908565b3480156102ac57600080fd5b506101d06102bb3660046150ec565b6119bb565b3480156102cc57600080fd5b5061019d6102db366004614eb4565b6119fc565b3480156102ec57600080fd5b5061019d61012f5481565b34801561030357600080fd5b5061019d61031236600461512e565b61013460209081526000928352604080842090915290825290205481565b34801561033c57600080fd5b506101d0611b83565b34801561035157600080fd5b5061019d6101305481565b34801561036857600080fd5b506101d061037736600461515a565b611b97565b34801561038857600080fd5b506033546001600160a01b03165b6040516001600160a01b0390911681526020016101a7565b3480156103ba57600080fd5b506101d06103c936600461515a565b611c17565b3480156103da57600080fd5b50610396611c92565b3480156103ef57600080fd5b5061041f6103fe36600461512e565b61013360209081526000928352604080842090915290825290205460ff1681565b60405190151581526020016101a7565b34801561043b57600080fd5b506101d061044a36600461515a565b611ca1565b34801561045b57600080fd5b5061039661046a366004615173565b611d1c565b34801561047b57600080fd5b506101d061048a366004614e12565b611d48565b34801561049b57600080fd5b5061013254610396906001600160a01b031681565b3480156104bc57600080fd5b506101d06104cb3660046151e9565b611dbe565b6104d8611f7e565b6001600160a01b0381166105225760405162461bcd60e51b815260206004820152600c60248201526b5a65726f206164647265737360a01b60448201526064015b60405180910390fd5b61013280546001600160a01b0319166001600160a01b0383169081179091556040519081527f137b621413925496477d46e5055ac0d56178bdd724ba8bf843afceef18268ba3906020015b60405180910390a150565b610580611f7e565b604051631303657760e01b815281151560048201526001600160a01b03831690631303657790602401600060405180830381600087803b1580156105c357600080fd5b505af11580156105d7573d6000803e3d6000fd5b505050505050565b6105e7611f7e565b6001600160a01b0381166105fa57600080fd5b8160000361060757600080fd5b6040516001600160a01b038216908390600081818185875af1925050503d8060008114610650576040519150601f19603f3d011682016040523d82523d6000602084013e610655565b606091505b5050505050565b6001600160a01b037f00000000000000000000000000000000000000000000000000000000000000001630036106a45760405162461bcd60e51b815260040161051990615289565b7f00000000000000000000000000000000000000000000000000000000000000006001600160a01b03166106d6611fd8565b6001600160a01b0316146106fc5760405162461bcd60e51b8152600401610519906152d5565b61070581611ff4565b6040805160008082526020820190925261072191839190611ffc565b50565b336107326020830183614e12565b6001600160a01b0316146107765760405162461bcd60e51b815260206004820152600b60248201526a2bb937b7339037b93232b960a91b6044820152606401610519565b6000610781826119fc565b3360009081526101336020908152604080832084845290915290205490915060ff16156107e85760405162461bcd60e51b815260206004820152601560248201527443616e63656c6c6564206f7220636f6d706c65746560581b6044820152606401610519565b336000908152610133602090815260408083208484528252909120805460ff191660011790557fa5c746908baa785b9f3d9590ac1ead062b1cf3075c49c4ccbca0de38be55c1ea9061083c90840184614e12565b61084c6040850160208601614e12565b604085013561086160a0870160808801615321565b6040516108719493929190615358565b60405180910390a15050565b6001600160a01b037f00000000000000000000000000000000000000000000000000000000000000001630036108c55760405162461bcd60e51b815260040161051990615289565b7f00000000000000000000000000000000000000000000000000000000000000006001600160a01b03166108f7611fd8565b6001600160a01b03161461091d5760405162461bcd60e51b8152600401610519906152d5565b61092682611ff4565b61093282826001611ffc565b5050565b61093e612167565b6000600161095260a0870160808801615321565b600481111561096357610963615342565b148061098f5750600461097c60a0870160808801615321565b600481111561098d5761098d615342565b145b806109ba575060026109a760a0850160808601615321565b60048111156109b8576109b8615342565b145b90508015610a3a57336109d06020870187614e12565b6001600160a01b031614610a355760405162461bcd60e51b815260206004820152602660248201527f4f666665722073686f756c64206265206163636570746564206279207468652060448201526539b2b63632b960d11b6064820152608401610519565b610a9e565b33610a486020850185614e12565b6001600160a01b031614610a9e5760405162461bcd60e51b815260206004820152601a60248201527f4275796572206164647265737320646f65736e74206d617463680000000000006044820152606401610519565b8015610b05576000610ab660c0850160a08601614e12565b6001600160a01b031603610b055760405162461bcd60e51b815260206004820152601660248201527527b7363c9022a9219918103337b91030bab1ba34b7b760511b6044820152606401610519565b6000610b1f610b1a6040860160208701614e12565b6121c0565b905060006003610b3560a0890160808a01615321565b6004811115610b4657610b46615342565b14158015610b7557506004610b6160a0890160808a01615321565b6004811115610b7257610b72615342565b14155b9050600082158015610b845750815b90506000610b91896119fc565b9050610ba06020880188614e12565b6001600160a01b03163303610bc657610bc681610bc060208c018c614e12565b8a6122f4565b8415610bf2576000610bd7886119fc565b9050610bf081610bea60208b018b614e12565b896122f4565b505b818015610c3857506101336000610c0c60208c018c614e12565b6001600160a01b031681526020808201929092526040908101600090812084825290925290205460ff16155b8015610c7a57506101346000610c5160208c018c614e12565b6001600160a01b0316815260208082019290925260409081016000908120848252909252902054155b15610cbe5760608901356101346000610c9660208d018d614e12565b6001600160a01b03168152602080820192909252604090810160009081208582529092529020555b610ccb89888686896123c0565b610cd889888686856127bd565b8115610d3b5760608701356101346000610cf560208d018d614e12565b6001600160a01b03166001600160a01b0316815260200190815260200160002060008381526020019081526020016000206000828254610d3591906153ba565b90915550505b8115610ddb576101346000610d5360208c018c614e12565b6001600160a01b03166001600160a01b03168152602001908152602001600020600082815260200190815260200160002054600003610dd65760016101336000610da060208d018d614e12565b6001600160a01b03168152602080820192909252604090810160009081208582529092529020805460ff19169115159190911790555b610e4d565b6002610ded60a0890160808a01615321565b6004811115610dfe57610dfe615342565b14610e4d5760016101336000610e1760208d018d614e12565b6001600160a01b03168152602080820192909252604090810160009081208582529092529020805460ff19169115159190911790555b610e5a60208a018a614e12565b6001600160a01b03163303610ec85760016101336000610e7d60208b018b614e12565b6001600160a01b03166001600160a01b031681526020019081526020016000206000610ea88a6119fc565b81526020810191909152604001600020805460ff19169115159190911790555b8215610f0b57610f0b610ee160408b0160208c01614e12565b60408b0135610ef360208d018d614e12565b610f0060208c018c614e12565b8b6060013589612bf9565b82610f1b57610f1b898886612eeb565b6040805160c0810190915260009080610f3760208d018d614e12565b6001600160a01b03168152602090810190610f54908b018b614e12565b6001600160a01b031681526020018b6020016020810190610f759190614e12565b6001600160a01b031681526020018b6040013581526020018960c0013581526020018b60a0016020810190610faa9190614e12565b6001600160a01b031690529050610fc18185613494565b8315611040577fb98b19c2f39a8910882da6b63c2dceedb6e0c627a20418117ee5312e03e0ad22610ff560208a018a614e12565b61100260208d018d614e12565b61101260408e0160208f01614e12565b8b604001358c60c001358d60600135604051611033969594939291906153cd565b60405180910390a16110b9565b7f10ba6c13484dae8a68a77d9ccd88ae8d4a2527f9afc97eb9c24cbc284b3af5fe61106e60208a018a614e12565b61107b60208d018d614e12565b61108b60408e0160208f01614e12565b6110996101008f018f615406565b8d60c001356040516110b096959493929190615450565b60405180910390a15b5050505050506110c9600160fd55565b50505050565b6110d7612167565b6040516301ffc9a760e01b81526001600160a01b038516906301ffc9a79061110a9063d5497c4d60e01b906004016154b1565b6020604051808303816000875af1158015611129573d6000803e3d6000fd5b505050506040513d601f19601f8201168201806040525081019061114d91906154c6565b806111c957506040516301ffc9a760e01b81526001600160a01b038516906301ffc9a790611186906352210df160e11b906004016154b1565b6020604051808303816000875af11580156111a5573d6000803e3d6000fd5b505050506040513d601f19601f820116820180604052508101906111c991906154c6565b61120e5760405162461bcd60e51b8152602060048201526016602482015275141c994814d85b19481b9bdd081cdd5c1c1bdc9d195960521b6044820152606401610519565b336001600160a01b0386160361125c5760405162461bcd60e51b815260206004820152601360248201527221b0b73a10313abc903cb7bab9103a37b5b2b760691b6044820152606401610519565b6000611267856121c0565b905060006112758683613ce8565b905060008180156112af57508280156112945750611294878988613df4565b806112af5750821580156112af57506112af87898887613ee7565b60405163e985e9c560e01b81526001600160a01b038a811660048301523060248301529192509088169063e985e9c590604401602060405180830381865afa1580156112ff573d6000803e3d6000fd5b505050506040513d601f19601f8201168201806040525081019061132391906154c6565b61135e5760405162461bcd60e51b815260206004820152600c60248201526b139bdd08185c1c1c9bdd995960a21b6044820152606401610519565b600083156115ff57846001146113a95760405162461bcd60e51b815260206004820152601060248201526f45524337323120697320756e6971756560801b6044820152606401610519565b818061142957506040516331a9108f60e11b8152600481018890526001600160a01b03808b1691908a1690636352211e90602401602060405180830381865afa1580156113fa573d6000803e3d6000fd5b505050506040513d601f19601f8201168201806040525081019061141e91906154e3565b6001600160a01b0316145b6114645760405162461bcd60e51b815260206004820152600c60248201526b2737ba1030b71037bbb732b960a11b6044820152606401610519565b6040516307b2b94560e11b81523360048201526024810188905260448101879052600090819081906001600160a01b038c1690630f65728a90606401606060405180830381865afa1580156114bd573d6000803e3d6000fd5b505050506040513d601f19601f820116820180604052508101906114e19190615500565b925092509250806115225760405162461bcd60e51b815260206004820152600b60248201526a139bdd08185b1b1bddd95960aa1b6044820152606401610519565b604051631564ed2d60e31b8152600481018a905233602482015292935083926001600160a01b038c169063ab27696890604401600060405180830381600087803b15801561156f57600080fd5b505af1158015611583573d6000803e3d6000fd5b505050506115968b8b8e338c6001612bf9565b60006040518060c001604052808e6001600160a01b03168152602001336001600160a01b031681526020018d6001600160a01b031681526020018c8152602001858152602001846001600160a01b031681525090506115f6816001613494565b505050506118b9565b60018510156116465760405162461bcd60e51b815260206004820152601360248201527243616e74206275792030207175616e7469747960681b6044820152606401610519565b81806116c25750604051627eeac760e11b81526001600160a01b038a81166004830152602482018990528691908a169062fdd58e90604401602060405180830381865afa15801561169b573d6000803e3d6000fd5b505050506040513d601f19601f820116820180604052508101906116bf9190615538565b10155b6117025760405162461bcd60e51b81526020600482015260116024820152704e6f7420656e6f75676820746f6b656e7360781b6044820152606401610519565b60405163863aa1c560e01b8152336004820152602481018890526044810186905260648101879052600090819081906001600160a01b038c169063863aa1c590608401606060405180830381865afa158015611762573d6000803e3d6000fd5b505050506040513d601f19601f820116820180604052508101906117869190615500565b925092509250806117c75760405162461bcd60e51b815260206004820152600b60248201526a139bdd08185b1b1bddd95960aa1b6044820152606401610519565b604051630a6e7bb160e31b8152336004820152602481018b905260448101899052606481018a905292935083926001600160a01b038c1690635373dd8890608401600060405180830381600087803b15801561182257600080fd5b505af1158015611836573d6000803e3d6000fd5b505050506118498b8b8e338c6000612bf9565b60006040518060c001604052808e6001600160a01b03168152602001336001600160a01b031681526020018d6001600160a01b031681526020018c8152602001858b6118959190615551565b8152602001846001600160a01b031681525090506118b4816001613494565b505050505b7fb98b19c2f39a8910882da6b63c2dceedb6e0c627a20418117ee5312e03e0ad22338a8a8a858a6040516118f2969594939291906153cd565b60405180910390a150505050610655600160fd55565b6000306001600160a01b037f000000000000000000000000000000000000000000000000000000000000000016146119a85760405162461bcd60e51b815260206004820152603860248201527f555550535570677261646561626c653a206d757374206e6f742062652063616c60448201527f6c6564207468726f7567682064656c656761746563616c6c00000000000000006064820152608401610519565b506000805160206158de83398151915290565b6119c3611f7e565b6001600160a01b0382166119d657600080fd5b826000036119e357600080fd5b6119f76001600160a01b0382168385613fe3565b505050565b6000611b7d7f931e0ed17c72aa650a700500771d394d44b10a685095fcc71cd489df15db87fe611a2f6020850185614e12565b611a3f6040860160208701614e12565b60408601356060870135611a5960a0890160808a01615321565b6004811115611a6a57611a6a615342565b611a7a60c08a0160a08b01614e12565b60c08a013560e08b0135611a926101008d018d615406565b604051602001611aa3929190615568565b60408051601f198184030181529190528051602090910120611ac96101208e018e615406565b604051602001611ada929190615568565b60408051808303601f1901815282825280516020918201209083019c909c526001600160a01b039a8b16908201529789166060890152608088019690965260a087019490945260c086019290925290941660e0840152610100830193909352610120820192909252610140808201929092526101608101929092528401356101808201526101a00160405160208183030381529060405280519060200120614046565b92915050565b611b8b611f7e565b611b956000614073565b565b611b9f611f7e565b612710811115611be15760405162461bcd60e51b815260206004820152600d60248201526c496e76616c69642076616c756560981b6044820152606401610519565b6101308190556040518181527f323ef8c675e623894b3d7f6be20f4301a1a130108f97a3b29c1208a81a9c50d79060200161056d565b611c1f611f7e565b61251c811115611c5c5760405162461bcd60e51b81526020600482015260086024820152674f7665722039352560c01b6044820152606401610519565b61012f8190556040518181527fa29c42da2d0ba4112644aa2f0c9df23b387e88c8448fbb9afc0710cd2ad4afce9060200161056d565b6000611c9c611fd8565b905090565b611ca9611f7e565b61251c811115611ce65760405162461bcd60e51b81526020600482015260086024820152674f7665722039352560c01b6044820152606401610519565b6101318190556040518181527f57e5b5038264ffc94762c5e554e4a3497b46983e124abce395f517a744bea6669060200161056d565b600080611d3f84611d306020860186615591565b856020013586604001356140c5565b50949350505050565b611d50611f7e565b6001600160a01b038116611db55760405162461bcd60e51b815260206004820152602660248201527f4f776e61626c653a206e6577206f776e657220697320746865207a65726f206160448201526564647265737360d01b6064820152608401610519565b61072181614073565b600054610100900460ff1615808015611dde5750600054600160ff909116105b80611df85750303b158015611df8575060005460ff166001145b611e145760405162461bcd60e51b8152600401610519906155b4565b6000805460ff191660011790558015611e37576000805461ff0019166101001790555b611e3f614189565b611e476141b8565b611eba89898080601f01602080910402602001604051908101604052809392919081815260200183838082843760009201919091525050604080516020601f8d018190048102820181019092528b815292508b91508a90819084018382808284376000920191909152506141df92505050565b6001600160a01b038316611eff5760405162461bcd60e51b815260206004820152600c60248201526b5a65726f206164647265737360a01b6044820152606401610519565b61012f85905561013084905561013280546001600160a01b0319166001600160a01b0385161790556101318290558015611f73576000805461ff0019169055604051600181527f7f26b83ff96e1f2b6a682f133852f6798a09c465da95921460cefb38474024989060200160405180910390a15b505050505050505050565b6033546001600160a01b03163314611b955760405162461bcd60e51b815260206004820181905260248201527f4f776e61626c653a2063616c6c6572206973206e6f7420746865206f776e65726044820152606401610519565b6000805160206158de833981519152546001600160a01b031690565b610721611f7e565b7f4910fdfa16fed3260ed0e7147f7cc6da11a60208b5b9406d12a635614ffd91435460ff161561202f576119f7836142ad565b826001600160a01b03166352d1902d6040518163ffffffff1660e01b8152600401602060405180830381865afa925050508015612089575060408051601f3d908101601f1916820190925261208691810190615538565b60015b6120ec5760405162461bcd60e51b815260206004820152602e60248201527f45524331393637557067726164653a206e657720696d706c656d656e7461746960448201526d6f6e206973206e6f74205555505360901b6064820152608401610519565b6000805160206158de833981519152811461215b5760405162461bcd60e51b815260206004820152602960248201527f45524331393637557067726164653a20756e737570706f727465642070726f786044820152681a58589b195555525160ba1b6064820152608401610519565b506119f7838383614349565b600260fd54036121b95760405162461bcd60e51b815260206004820152601f60248201527f5265656e7472616e637947756172643a207265656e7472616e742063616c6c006044820152606401610519565b600260fd55565b600080826001600160a01b03166301ffc9a76380ac58cd60e01b6040518263ffffffff1660e01b81526004016121f691906154b1565b6020604051808303816000875af1158015612215573d6000803e3d6000fd5b505050506040513d601f19601f8201168201806040525081019061223991906154c6565b905080806122b857506040516301ffc9a760e01b81526001600160a01b038416906301ffc9a79061227590636cdb3d1360e11b906004016154b1565b6020604051808303816000875af1158015612294573d6000803e3d6000fd5b505050506040513d601f19601f820116820180604052508101906122b891906154c6565b611b7d5760405162461bcd60e51b815260206004820152600d60248201526c2ab735b737bbb7102a37b5b2b760991b6044820152606401610519565b6001600160a01b03821660009081526101336020908152604080832086845290915290205460ff16156123615760405162461bcd60e51b815260206004820152601560248201527443616e63656c6c6564206f7220636f6d706c65746560581b6044820152606401610519565b600061236d8483611d1c565b9050806001600160a01b0316836001600160a01b0316146110c95760405162461bcd60e51b815260206004820152600d60248201526c426164207369676e617475726560981b6044820152606401610519565b60006123db6123d56040880160208901614e12565b85613ce8565b9050821561271b576123f1610100870187615406565b1590506124345760405162461bcd60e51b815260206004820152601160248201527057726f6e67206c697374696e675479706560781b6044820152606401610519565b83156125aa5784606001356001148015612452575085606001356001145b61248f5760405162461bcd60e51b815260206004820152600e60248201526d4e6f6e2d31207175616e7469747960901b6044820152606401610519565b8080156124c157506124c16124aa6040880160208901614e12565b6124b76020890189614e12565b8860400135613df4565b8061256a57506124d46020870187614e12565b6001600160a01b03166124ed6040880160208901614e12565b6001600160a01b0316636352211e88604001356040518263ffffffff1660e01b815260040161251e91815260200190565b602060405180830381865afa15801561253b573d6000803e3d6000fd5b505050506040513d601f19601f8201168201806040525081019061255f91906154e3565b6001600160a01b0316145b6125a55760405162461bcd60e51b815260206004820152600c60248201526b2737ba1030b71037bbb732b960a11b6044820152606401610519565b61271b565b600085606001351180156125c2575060008660600135115b6125fb5760405162461bcd60e51b815260206004820152600a60248201526930207175616e7469747960b01b6044820152606401610519565b80801561263257506126326126166040880160208901614e12565b6126236020890189614e12565b88604001358860600135613ee7565b806126db5750606085013561264d6040880160208901614e12565b6001600160a01b031662fdd58e61266760208a018a614e12565b604080516001600160e01b031960e085901b1681526001600160a01b0390921660048301528a01356024820152604401602060405180830381865afa1580156126b4573d6000803e3d6000fd5b505050506040513d601f19601f820116820180604052508101906126d89190615538565b10155b61271b5760405162461bcd60e51b81526020600482015260116024820152704e6f7420656e6f75676820746f6b656e7360781b6044820152606401610519565b8161277957428660e00135101580156127385750428560e0013510155b6127745760405162461bcd60e51b815260206004820152600d60248201526c27bb32b9323ab29037b93232b960991b6044820152606401610519565b6105d7565b428560e0013510156105d75760405162461bcd60e51b815260206004820152600d60248201526c27bb32b9323ab29037b33332b960991b6044820152606401610519565b6127ca6020860186614e12565b6001600160a01b03166127e06020860186614e12565b6001600160a01b0316036128285760405162461bcd60e51b815260206004820152600f60248201526e213abcb2b9101e9e9029b2b63632b960891b6044820152606401610519565b6128386040860160208701614e12565b6001600160a01b03166128516040860160208701614e12565b6001600160a01b03161461289a5760405162461bcd60e51b815260206004820152601060248201526f446966666572656e7420746f6b656e7360801b6044820152606401610519565b8360400135856040013514806128ae575081155b806128d9575060026128c660a0860160808701615321565b60048111156128d7576128d7615342565b145b61291b5760405162461bcd60e51b81526020600482015260136024820152720a8ded6cadc9288e640c8dedce840dac2e8c6d606b1b6044820152606401610519565b821580156129265750815b156129b757606084013561013460006129426020890189614e12565b6001600160a01b03166001600160a01b0316815260200190815260200160002060008381526020019081526020016000205410156129b75760405162461bcd60e51b815260206004820152601260248201527143616e74206275792074686174206d616e7960701b6044820152606401610519565b6129c760a0850160808601615321565b60048111156129d8576129d8615342565b6129e860a0870160808801615321565b60048111156129f9576129f9615342565b14612a465760405162461bcd60e51b815260206004820152601960248201527f4c697374696e67207479706520646f65736e74206d61746368000000000000006044820152606401610519565b612a5660c0850160a08601614e12565b6001600160a01b0316612a6f60c0870160a08801614e12565b6001600160a01b031614612ac55760405162461bcd60e51b815260206004820152601860248201527f5061796d656e7420746f6b656e20646f6e74206d6174636800000000000000006044820152606401610519565b818015612b0d57508360c001358560c0013511158015612ae25750825b80612b0d57508360c0013584606001358660c00135612b019190615551565b11158015612b0d575082155b80612b29575081158015612b2957508360c001358560c0013511155b612b6a5760405162461bcd60e51b815260206004820152601260248201527115985b1d59481a5cc81d1bdbc81cdb585b1b60721b6044820152606401610519565b612b78610100850185615406565b9050612b88610100870187615406565b9050148015612bb45750612ba0610120850185615406565b9050612bb0610120870187615406565b9050145b6106555760405162461bcd60e51b81526020600482015260166024820152750a8ded6cadc40d8d2e6e8e640c8dedce840dac2e8c6d60531b6044820152606401610519565b6000612c058783613ce8565b90508115612cfa576000818015612c225750612c22888789613df4565b90508015612c915760405163336b44bb60e01b81526001600160a01b0386811660048301526024820189905289169063336b44bb90604401600060405180830381600087803b158015612c7457600080fd5b505af1158015612c88573d6000803e3d6000fd5b50505050612cf4565b604051632142170760e11b81526001600160a01b038916906342842e0e90612cc190899089908c90600401615602565b600060405180830381600087803b158015612cdb57600080fd5b505af1158015612cef573d6000803e3d6000fd5b505050505b50612ee2565b6000818015612d105750612d1088878987613ee7565b90508015612e7b57604051627eeac760e11b81526001600160a01b03878116600483015260248201899052600091908a169062fdd58e90604401602060405180830381865afa158015612d67573d6000803e3d6000fd5b505050506040513d601f19601f82011682018060405250810190612d8b9190615538565b90506000612d9982876153ba565b604051632741416360e01b81526001600160a01b038981166004830152602482018c905260448201839052919250908b1690632741416390606401600060405180830381600087803b158015612dee57600080fd5b505af1158015612e02573d6000803e3d6000fd5b505050506000821115612e7457604051637921219560e11b81526001600160a01b038b169063f242432a90612e41908b908b908e908890600401615626565b600060405180830381600087803b158015612e5b57600080fd5b505af1158015612e6f573d6000803e3d6000fd5b505050505b5050612ee0565b604051637921219560e11b81526001600160a01b0389169063f242432a90612ead90899089908c908a90600401615626565b600060405180830381600087803b158015612ec757600080fd5b505af1158015612edb573d6000803e3d6000fd5b505050505b505b50505050505050565b6000612efd6040840160208501614e12565b90506000612f1a612f146040870160208801614e12565b84613ce8565b905060005b612f2d610100870187615406565b90508110156105d757612f44610100860186615406565b82818110612f5457612f5461565e565b9050602002013586806101000190612f6c9190615406565b83818110612f7c57612f7c61565e565b9050602002013514612fc05760405162461bcd60e51b815260206004820152600d60248201526c15dc9bdb99c81d1bdad95b9259609a1b6044820152606401610519565b612fce610120860186615406565b82818110612fde57612fde61565e565b9050602002013586806101200190612ff69190615406565b838181106130065761300661565e565b905060200201351461304b5760405162461bcd60e51b815260206004820152600e60248201526d57726f6e67207175616e7469747960901b6044820152606401610519565b600061305b610100880188615406565b8381811061306b5761306b61565e565b9050602002013590506000878061012001906130879190615406565b848181106130975761309761565e565b90506020020135905085156131f557806001146130e95760405162461bcd60e51b815260206004820152601060248201526f45524337323120697320756e6971756560801b6044820152606401610519565b838015613117575061311761310460408a0160208b01614e12565b61311160208b018b614e12565b84613df4565b156131ad5761312c6040890160208a01614e12565b6001600160a01b031663336b44bb61314760208a018a614e12565b6040516001600160e01b031960e084901b1681526001600160a01b039091166004820152602481018590526044015b600060405180830381600087803b15801561319057600080fd5b505af11580156131a4573d6000803e3d6000fd5b5050505061347f565b6001600160a01b0385166342842e0e6131c960208b018b614e12565b6131d660208b018b614e12565b856040518463ffffffff1660e01b815260040161317693929190615602565b838015613224575061322461321060408a0160208b01614e12565b61321d60208b018b614e12565b8484613ee7565b1561340257600061323b60408a0160208b01614e12565b6001600160a01b031662fdd58e61325560208c018c614e12565b6040516001600160e01b031960e084901b1681526001600160a01b03909116600482015260248101869052604401602060405180830381865afa1580156132a0573d6000803e3d6000fd5b505050506040513d601f19601f820116820180604052508101906132c49190615538565b905060006132d282846153ba565b90506132e460408b0160208c01614e12565b6001600160a01b031663274141636132ff60208c018c614e12565b6040516001600160e01b031960e084901b1681526001600160a01b0390911660048201526024810187905260448101849052606401600060405180830381600087803b15801561334e57600080fd5b505af1158015613362573d6000803e3d6000fd5b5050505060008211156133fb5761337f60408b0160208c01614e12565b6001600160a01b031663f242432a61339a60208d018d614e12565b6133a760208d018d614e12565b87866040518563ffffffff1660e01b81526004016133c89493929190615626565b600060405180830381600087803b1580156133e257600080fd5b505af11580156133f6573d6000803e3d6000fd5b505050505b505061347f565b6001600160a01b03851663f242432a61341e60208b018b614e12565b61342b60208b018b614e12565b85856040518563ffffffff1660e01b815260040161344c9493929190615626565b600060405180830381600087803b15801561346657600080fd5b505af115801561347a573d6000803e3d6000fd5b505050505b5050808061348c90615674565b915050612f1f565b60a082015160808301516001600160a01b03909116158015919061363757608084015160a085015160208601516040516370a0823160e01b81526001600160a01b0391821660048201529116906370a0823190602401602060405180830381865afa158015613507573d6000803e3d6000fd5b505050506040513d601f19601f8201168201806040525081019061352b9190615538565b101561356e5760405162461bcd60e51b81526020600482015260126024820152714e6f7420656e6f7567682062616c616e636560701b6044820152606401610519565b608084015160a08501516020860151604051636eb1769f60e11b81526001600160a01b03918216600482015230602482015291169063dd62ed3e90604401602060405180830381865afa1580156135c9573d6000803e3d6000fd5b505050506040513d601f19601f820116820180604052508101906135ed9190615538565b10156136325760405162461bcd60e51b81526020600482015260146024820152734e6f7420656e6f75676820616c6c6f77616e636560601b6044820152606401610519565b613680565b83608001513410156136805760405162461bcd60e51b81526020600482015260126024820152714e6f7420656e6f756768207b76616c75657d60701b6044820152606401610519565b83604001516001600160a01b03166301ffc9a7631189900560e11b6040518263ffffffff1660e01b81526004016136b791906154b1565b6020604051808303816000875af11580156136d6573d6000803e3d6000fd5b505050506040513d601f19601f820116820180604052508101906136fa91906154c6565b15613a7f57600084604001519050806001600160a01b031663012e46b66040518163ffffffff1660e01b81526004016020604051808303816000875af1158015613748573d6000803e3d6000fd5b505050506040513d601f19601f8201168201806040525081019061376c91906154c6565b80156137de57506000816001600160a01b0316639fc28f816040518163ffffffff1660e01b8152600401600060405180830381865afa1580156137b3573d6000803e3d6000fd5b505050506040513d6000823e601f3d908101601f191682016040526137db919081019061568d565b51115b156139c9578380156138695750606085015160405163120dd7e160e21b81526000916001600160a01b038416916348375f84916138219160040190815260200190565b600060405180830381865afa15801561383e573d6000803e3d6000fd5b505050506040513d6000823e601f3d908101601f19168201604052613866919081019061568d565b51115b1561398957606085015160405163120dd7e160e21b81526000916001600160a01b038416916348375f84916138a49160040190815260200190565b600060405180830381865afa1580156138c1573d6000803e3d6000fd5b505050506040513d6000823e601f3d908101601f191682016040526138e9919081019061568d565b905060008087604001516001600160a01b0316632a55205a89606001518a608001516040518363ffffffff1660e01b8152600401613931929190918252602082015260400190565b6040805180830381865afa15801561394d573d6000803e3d6000fd5b505050506040513d601f19601f820116820180604052508101906139719190615758565b915091506139818883838661436e565b505050613a79565b6000816001600160a01b0316639fc28f816040518163ffffffff1660e01b8152600401600060405180830381865afa1580156138c1573d6000803e3d6000fd5b60008086604001516001600160a01b0316632a55205a886060015189608001516040518363ffffffff1660e01b8152600401613a0f929190918252602082015260400190565b6040805180830381865afa158015613a2b573d6000803e3d6000fd5b505050506040513d601f19601f82011682018060405250810190613a4f9190615758565b91509150613a76876020015188600001518960a001518a6080015186868d60400151614695565b50505b50613c79565b83604001516001600160a01b03166301ffc9a763152a902d60e11b6040518263ffffffff1660e01b8152600401613ab691906154b1565b6020604051808303816000875af1158015613ad5573d6000803e3d6000fd5b505050506040513d601f19601f82011682018060405250810190613af991906154c6565b15613bb25760008085604001516001600160a01b0316632a55205a876060015188608001516040518363ffffffff1660e01b8152600401613b44929190918252602082015260400190565b6040805180830381865afa158015613b60573d6000803e3d6000fd5b505050506040513d601f19601f82011682018060405250810190613b849190615758565b91509150613bab866020015187600001518860a00151896080015186868c60400151614695565b5050613c79565b600061271061012f5483613bc69190615551565b613bd09190615786565b90506000613bde82846153ba565b9050613bf4848760a0015184896020015161485f565b8315613c21576020860151865160a0880151613c1c926001600160a01b03909116918461491f565b613c76565b85516040516001600160a01b03909116908290600081818185875af1925050503d8060008114613c6d576040519150601f19603f3d011682016040523d82523d6000602084013e613c72565b606091505b5050505b50505b60a08401516001600160a01b03166110c9576000613c9782346153ba565b905084602001516001600160a01b03168160405160006040518083038185875af1925050503d8060008114612ee0576040519150601f19603f3d011682016040523d82523d6000602084013e612ee0565b6000818015613d6857506040516301ffc9a760e01b81526001600160a01b038416906301ffc9a790613d259063f19b019960e01b906004016154b1565b6020604051808303816000875af1158015613d44573d6000803e3d6000fd5b505050506040513d601f19601f82011682018060405250810190613d6891906154c6565b80613ded575081158015613ded57506040516301ffc9a760e01b81526001600160a01b038416906301ffc9a790613daa9063155c914760e31b906004016154b1565b6020604051808303816000875af1158015613dc9573d6000803e3d6000fd5b505050506040513d601f19601f82011682018060405250810190613ded91906154c6565b9392505050565b604051634f558e7960e01b8152600481018290526000906001600160a01b03851690634f558e7990602401602060405180830381865afa158015613e3c573d6000803e3d6000fd5b505050506040513d601f19601f82011682018060405250810190613e6091906154c6565b158015613edf5750826001600160a01b0316846001600160a01b0316638da5cb5b6040518163ffffffff1660e01b8152600401602060405180830381865afa158015613eb0573d6000803e3d6000fd5b505050506040513d601f19601f82011682018060405250810190613ed491906154e3565b6001600160a01b0316145b949350505050565b604051627eeac760e11b81526001600160a01b03848116600483015260248201849052600091839187169062fdd58e90604401602060405180830381865afa158015613f37573d6000803e3d6000fd5b505050506040513d601f19601f82011682018060405250810190613f5b9190615538565b108015613fda5750836001600160a01b0316856001600160a01b0316638da5cb5b6040518163ffffffff1660e01b8152600401602060405180830381865afa158015613fab573d6000803e3d6000fd5b505050506040513d601f19601f82011682018060405250810190613fcf91906154e3565b6001600160a01b0316145b95945050505050565b6040516001600160a01b0383166024820152604481018290526119f790849063a9059cbb60e01b906064015b60408051601f198184030181529190526020810180516001600160e01b03166001600160e01b031990931692909217909152614940565b6000611b7d614053614a15565b8360405161190160f01b8152600281019290925260228201526042902090565b603380546001600160a01b038381166001600160a01b0319831681179093556040519116919082907f8be0079c531659141344cd1fd0a4f28419497f9722a3daafe3b4186f6b6457e090600090a35050565b6000807f7fffffffffffffffffffffffffffffff5d576e7357a4501ddfe92f46681b20a08311156140fc5750600090506003614180565b6040805160008082526020820180845289905260ff881692820192909252606081018690526080810185905260019060a0016020604051602081039080840390855afa158015614150573d6000803e3d6000fd5b5050604051601f1901519150506001600160a01b03811661417957600060019250925050614180565b9150600090505b94509492505050565b600054610100900460ff166141b05760405162461bcd60e51b8152600401610519906157a8565b611b95614a90565b600054610100900460ff16611b955760405162461bcd60e51b8152600401610519906157a8565b600054610100900460ff16158080156141ff5750600054600160ff909116105b806142195750303b158015614219575060005460ff166001145b6142355760405162461bcd60e51b8152600401610519906155b4565b6000805460ff191660011790558015614258576000805461ff0019166101001790555b6142628383614ac0565b80156119f7576000805461ff0019169055604051600181527f7f26b83ff96e1f2b6a682f133852f6798a09c465da95921460cefb3847402498906020015b60405180910390a1505050565b6001600160a01b0381163b61431a5760405162461bcd60e51b815260206004820152602d60248201527f455243313936373a206e657720696d706c656d656e746174696f6e206973206e60448201526c1bdd08184818dbdb9d1c9858dd609a1b6064820152608401610519565b6000805160206158de83398151915280546001600160a01b0319166001600160a01b0392909216919091179055565b61435283614b98565b60008251118061435f5750805b156119f7576110c98383614bd8565b608084015180156106555760a085015161012f546001600160a01b039091161515908490600090612710906143a39086615551565b6143ad9190615786565b9050600061271061013154866143c39190615551565b6143cd9190615786565b9050808311156143db578092505b6000836143e884886153ba565b6143f291906153ba565b9050614408858b60a00151858d6020015161485f565b841561443b5780156144365760208a01518a5160a08c0151614436926001600160a01b03909116918461491f565b614496565b80156144965789516040516001600160a01b03909116908290600081818185875af1925050503d806000811461448d576040519150601f19603f3d011682016040523d82523d6000602084013e614492565b606091505b5050505b505081159050614645578060005b85518110156145be5760008682815181106144c1576144c161565e565b602002602001015160000151905060006127108884815181106144e6576144e661565e565b602002602001015160200151866144fd9190615551565b6145079190615786565b90506000811180156145195750808410155b156145a957851561454a5760208b015160a08c0151614545916001600160a01b0390911690848461491f565b61459c565b6040516001600160a01b038316908290600081818185875af1925050503d8060008114614593576040519150601f19603f3d011682016040523d82523d6000602084013e614598565b606091505b5050505b6145a681856153ba565b93505b505080806145b690615674565b9150506144a4565b5080156146435782156145f157602088015160a08901516145ec916001600160a01b0390911690898461491f565b614643565b6040516001600160a01b038816908290600081818185875af1925050503d806000811461463a576040519150601f19603f3d011682016040523d82523d6000602084013e61463f565b606091505b5050505b505b8015612ee2577f9b613e301dc40dd14477f2522be85511f4ec9e592e1bee1320a05e12dbf75229876040015187868460405161468494939291906157f3565b60405180910390a150505050505050565b8315612ee25761012f546001600160a01b038616151590600090612710906146bd9088615551565b6146c79190615786565b90506000849050600061271061013154896146e29190615551565b6146ec9190615786565b9050808211156146fa578091505b600082614707858b6153ba565b61471191906153ba565b905061471f858b868f61485f565b8415614760578215614740576147406001600160a01b038b168d8a8661491f565b801561475b5761475b6001600160a01b038b168d8d8461491f565b614810565b82156147b8576040516001600160a01b038916908490600081818185875af1925050503d80600081146147af576040519150601f19603f3d011682016040523d82523d6000602084013e6147b4565b606091505b5050505b8015614810576040516001600160a01b038c16908290600081818185875af1925050503d8060008114614807576040519150601f19603f3d011682016040523d82523d6000602084013e61480c565b606091505b5050505b8215612edb577fbdf0502df1b76d58521b2a929580ca100c2121e0ae38717b260d9cfa44c23b3286898560405161484993929190615602565b60405180910390a1505050505050505050505050565b600061271061013054846148739190615551565b61487d9190615786565b9050600061488b82856153ba565b905085156148d15781156148ae576148ae6001600160a01b03861684308561491f565b80156127745761013254612774906001600160a01b03878116918691168461491f565b610132546040516001600160a01b03909116908290600081818185875af1925050503d8060008114611f73576040519150601f19603f3d011682016040523d82523d6000602084013e611f73565b6110c9846323b872dd60e01b85858560405160240161400f93929190615602565b6000614995826040518060400160405280602081526020017f5361666545524332303a206c6f772d6c6576656c2063616c6c206661696c6564815250856001600160a01b0316614bfd9092919063ffffffff16565b90508051600014806149b65750808060200190518101906149b691906154c6565b6119f75760405162461bcd60e51b815260206004820152602a60248201527f5361666545524332303a204552433230206f7065726174696f6e20646964206e6044820152691bdd081cdd58d8d9595960b21b6064820152608401610519565b6000611c9c7f8b73c3c69bb8fe3d512ecc4cf759cc79239f7b179b0ffacaa9a75d522b39400f614a4460c95490565b60ca546040805160208101859052908101839052606081018290524660808201523060a082015260009060c0016040516020818303038152906040528051906020012090509392505050565b600054610100900460ff16614ab75760405162461bcd60e51b8152600401610519906157a8565b611b9533614073565b600054610100900460ff1615808015614ae05750600054600160ff909116105b80614afa5750303b158015614afa575060005460ff166001145b614b165760405162461bcd60e51b8152600401610519906155b4565b6000805460ff191660011790558015614b39576000805461ff0019166101001790555b825160208085019190912083519184019190912060c99190915560ca5580156119f7576000805461ff0019169055604051600181527f7f26b83ff96e1f2b6a682f133852f6798a09c465da95921460cefb3847402498906020016142a0565b614ba1816142ad565b6040516001600160a01b038216907fbc7cd75a20ee27fd9adebab32041f755214dbc6bffa90cc0225b39da2e5c2d3b90600090a250565b6060613ded83836040518060600160405280602781526020016158fe60279139614c0c565b6060613edf8484600085614c84565b6060600080856001600160a01b031685604051614c29919061588e565b600060405180830381855af49150503d8060008114614c64576040519150601f19603f3d011682016040523d82523d6000602084013e614c69565b606091505b5091509150614c7a86838387614d5f565b9695505050505050565b606082471015614ce55760405162461bcd60e51b815260206004820152602660248201527f416464726573733a20696e73756666696369656e742062616c616e636520666f6044820152651c8818d85b1b60d21b6064820152608401610519565b600080866001600160a01b03168587604051614d01919061588e565b60006040518083038185875af1925050503d8060008114614d3e576040519150601f19603f3d011682016040523d82523d6000602084013e614d43565b606091505b5091509150614d5487838387614d5f565b979650505050505050565b60608315614dce578251600003614dc7576001600160a01b0385163b614dc75760405162461bcd60e51b815260206004820152601d60248201527f416464726573733a2063616c6c20746f206e6f6e2d636f6e74726163740000006044820152606401610519565b5081613edf565b613edf8383815115614de35781518083602001fd5b8060405162461bcd60e51b815260040161051991906158aa565b6001600160a01b038116811461072157600080fd5b600060208284031215614e2457600080fd5b8135613ded81614dfd565b801515811461072157600080fd5b60008060408385031215614e5057600080fd5b8235614e5b81614dfd565b91506020830135614e6b81614e2f565b809150509250929050565b60008060408385031215614e8957600080fd5b823591506020830135614e6b81614dfd565b60006101608284031215614eae57600080fd5b50919050565b600060208284031215614ec657600080fd5b813567ffffffffffffffff811115614edd57600080fd5b613edf84828501614e9b565b634e487b7160e01b600052604160045260246000fd5b6040805190810167ffffffffffffffff81118282101715614f2257614f22614ee9565b60405290565b604051601f8201601f1916810167ffffffffffffffff81118282101715614f5157614f51614ee9565b604052919050565b60008060408385031215614f6c57600080fd5b8235614f7781614dfd565b915060208381013567ffffffffffffffff80821115614f9557600080fd5b818601915086601f830112614fa957600080fd5b813581811115614fbb57614fbb614ee9565b614fcd601f8201601f19168501614f28565b91508082528784828501011115614fe357600080fd5b80848401858401376000848284010152508093505050509250929050565b600060608284031215614eae57600080fd5b600080600080610100858703121561502a57600080fd5b843567ffffffffffffffff8082111561504257600080fd5b61504e88838901614e9b565b955061505d8860208901615001565b9450608087013591508082111561507357600080fd5b5061508087828801614e9b565b9250506150908660a08701615001565b905092959194509250565b600080600080600060a086880312156150b357600080fd5b85356150be81614dfd565b945060208601356150ce81614dfd565b94979496505050506040830135926060810135926080909101359150565b60008060006060848603121561510157600080fd5b83359250602084013561511381614dfd565b9150604084013561512381614dfd565b809150509250925092565b6000806040838503121561514157600080fd5b823561514c81614dfd565b946020939093013593505050565b60006020828403121561516c57600080fd5b5035919050565b6000806080838503121561518657600080fd5b823591506151978460208501615001565b90509250929050565b60008083601f8401126151b257600080fd5b50813567ffffffffffffffff8111156151ca57600080fd5b6020830191508360208285010111156151e257600080fd5b9250929050565b60008060008060008060008060c0898b03121561520557600080fd5b883567ffffffffffffffff8082111561521d57600080fd5b6152298c838d016151a0565b909a50985060208b013591508082111561524257600080fd5b5061524f8b828c016151a0565b9097509550506040890135935060608901359250608089013561527181614dfd565b8092505060a089013590509295985092959890939650565b6020808252602c908201527f46756e6374696f6e206d7573742062652063616c6c6564207468726f7567682060408201526b19195b1959d85d1958d85b1b60a21b606082015260800190565b6020808252602c908201527f46756e6374696f6e206d7573742062652063616c6c6564207468726f7567682060408201526b6163746976652070726f787960a01b606082015260800190565b60006020828403121561533357600080fd5b813560058110613ded57600080fd5b634e487b7160e01b600052602160045260246000fd5b6001600160a01b0385811682528416602082015260408101839052608081016005831061539557634e487b7160e01b600052602160045260246000fd5b82606083015295945050505050565b634e487b7160e01b600052601160045260246000fd5b81810381811115611b7d57611b7d6153a4565b6001600160a01b03968716815294861660208601529290941660408401526060830152608082019290925260a081019190915260c00190565b6000808335601e1984360301811261541d57600080fd5b83018035915067ffffffffffffffff82111561543857600080fd5b6020019150600581901b36038213156151e257600080fd5b6001600160a01b03878116825286811660208301528516604082015260a060608201819052810183905260006001600160fb1b0384111561549057600080fd5b8360051b808660c08501376080830193909352500160c00195945050505050565b6001600160e01b031991909116815260200190565b6000602082840312156154d857600080fd5b8151613ded81614e2f565b6000602082840312156154f557600080fd5b8151613ded81614dfd565b60008060006060848603121561551557600080fd5b83519250602084015161552781614dfd565b604085015190925061512381614e2f565b60006020828403121561554a57600080fd5b5051919050565b8082028115828204841417611b7d57611b7d6153a4565b60006001600160fb1b0383111561557e57600080fd5b8260051b80858437919091019392505050565b6000602082840312156155a357600080fd5b813560ff81168114613ded57600080fd5b6020808252602e908201527f496e697469616c697a61626c653a20636f6e747261637420697320616c72656160408201526d191e481a5b9a5d1a585b1a5e995960921b606082015260800190565b6001600160a01b039384168152919092166020820152604081019190915260600190565b6001600160a01b0394851681529290931660208301526040820152606081019190915260a06080820181905260009082015260c00190565b634e487b7160e01b600052603260045260246000fd5b600060018201615686576156866153a4565b5060010190565b600060208083850312156156a057600080fd5b825167ffffffffffffffff808211156156b857600080fd5b818501915085601f8301126156cc57600080fd5b8151818111156156de576156de614ee9565b6156ec848260051b01614f28565b818152848101925060069190911b83018401908782111561570c57600080fd5b928401925b81841015614d54576040848903121561572a5760008081fd5b615732614eff565b845161573d81614dfd565b81528486015186820152835260409093019291840191615711565b6000806040838503121561576b57600080fd5b825161577681614dfd565b6020939093015192949293505050565b6000826157a357634e487b7160e01b600052601260045260246000fd5b500490565b6020808252602b908201527f496e697469616c697a61626c653a20636f6e7472616374206973206e6f74206960408201526a6e697469616c697a696e6760a81b606082015260800190565b60006080820160018060a01b038088168452602081881681860152604060808187015283885180865260a088019150838a01955060005b8181101561585157865180518716845285015185840152958401959183019160010161582a565b5050809550505050505082606083015295945050505050565b60005b8381101561588557818101518382015260200161586d565b50506000910152565b600082516158a081846020870161586a565b9190910192915050565b60208152600082518060208401526158c981604085016020870161586a565b601f01601f1916919091016040019291505056fe360894a13ba1a3210667c828492db98dca3e2076cc3735a920a3ca505d382bbc416464726573733a206c6f772d6c6576656c2064656c65676174652063616c6c206661696c6564a26469706673582212205dfc6136a720eb159faa0df870204e69d0ae7aed496d6557c5743a7148443e7664736f6c63430008110033",
  "linkReferences": {},
  "deployedLinkReferences": {}
}